:100000000C940D010C9435010C9435010C94040FE3
:100010000C94DF0E0C94BA0E0C9435010C94FE0D6A
:100020000C9435010C9435010C9435010C94350178
:100030000C9435010C9435010C9435010C94350168
:100040000C94B40D0C9435010C94820D0C945C0D41
:100050000C9435010C9435010C9435010C94350148
:100060000C94290F0C94350108000000BE9224491D
:10007000123EABAAAA2ABECDCCCC4C3E00000080DA
:10008000BEABAAAAAA3E00000000BF000000803F4D
:100090000000000000084178D3BB4387D1133D190D
:1000A0000E3CC3BD4282AD2B3E68EC8276BED98F3A
:1000B000E1A93E4C80EFFFBE01C4FF7F3F0000007E
:1000C000000000407A10F35A00A0724E1809001088
:1000D000A5D4E80000E87648170000E40B540200BD
:1000E00000CA9A3B000000E1F505000080969800E8
:1000F000000040420F000000A08601000000102711
:1001000000000000E80300000000640000000000A0
:100110000A00000000000100000000002C76D888D2
:10012000DC674F0823DFC1DFAE59E1B1B796E5E3E5
:10013000E453C63AE651997696E8E6C28426EB89FE
:100140008C9B62ED407C6FFCEFBC9C9F40F2BAA59B
:100150006FA5F490055A2AF75C936B6CF9676DC133
:100160001BFCE0E40D47FEF520E6B500D0ED902E37
:100170000300943577050080841E080000204E0A95
:10018000000000C80C333333330F986E12831141D3
:10019000EF8D2114893BE65516CFFEE6DB18D1849E
:1001A0004B381BF77C1D901DA4BBE42420328472C5
:1001B0005E228100C9F124ECA1E53D27000000008A
:1001C000240027002A0000000000250028002B0042
:1001D0000000000800020100000304070000000006
:1001E0000000000000000000230026002900040495
:1001F00004040404040402020202020203030303CF
:1002000003030102040810204080010204081020AA
:100210000102040810208D10041711241FBECFEF17
:10022000D8E0DEBFCDBF25E0AEE2B2E001C01D9256
:10023000A535B207E1F712E0A0E0B1E0E6E9FEE3A0
:1002400002C005900D92AE32B107D9F711E0CCE0B3
:10025000D1E004C02197FE010E943D1DCB30D107A3
:10026000C9F70E944B110C943E1F0C940000982F6C
:100270002091410381E0213208F043C080911D03A9
:100280008111FCCF8091400332E030931D039093A5
:100290001C039FEF90931B0310921A0320931903E2
:1002A000A0E2B3E0E9EFF2E090E0291331C0109250
:1002B000F8029091F802880F892B8093F8028091C0
:1002C000F702813049F51092F7028091F80280938D
:1002D000BB008091BC0083FDF8CF85EC8093BC000F
:1002E00080911D038230E1F380911B038F3FB1F0B9
:1002F00080911B038032A1F080911B03803391F029
:1003000084E010921F031092410310921E0308957F
:100310003D9131939F5FC9CF85EEE0CF80E0F1CF73
:1003200082E0EFCF83E0EDCF90911D039111FCCFE0
:1003300091E090931D0390931C032FEF20931B03D8
:1003400010921A03260F209319039093F8029091AC
:10035000F802880F892B8093F8028091F702813090
:10036000F9F41092F7028091F8028093BB0080911B
:10037000BC0083FDF8CF85EC8093BC0080911D0309
:100380008130E1F380911A03861710F460911A030B
:10039000A9EFB2E0E7EDF2E080E0861303C0089534
:1003A00085EEEACF9D9191938F5FF7CF08950895E1
:1003B0008F929F92AF92BF92CF92DF92EF92FF9275
:1003C000CF93DF93A091020530E081113A2F809105
:1003D000030590E0880F991FAC014C515E4FC0900F
:1003E0000805D0900905E0900A05F0900B0560E043
:1003F00070E0CB01FA01C591D49128812A232313FF
:100400000FC04B015C012FEF821A920AA20AB20AB6
:100410006C157D058E059F0570F060E070E0CB01E6
:10042000DF91CF91FF90EF90DF90CF90BF90AF9092
:100430009F908F900895C501B401DCCF8091D502C3
:100440009091D602891B990B0895AF92BF92CF92DB
:10045000DF92EF92FF920F931F93CF93DF936C0184
:100460007B018B01040F151FEB015E01AE18BF0865
:10047000C017D10759F06991D601ED91FC91019017
:10048000F081E02DC6010995892B79F7C501DF912F
:10049000CF911F910F91FF90EF90DF90CF90BF9081
:1004A000AF900895FC01538D448D252F30E0842FAB
:1004B00090E0821B930B541710F0CF96089501978C
:1004C0000895FC01918D828D981761F0A28DAE0F79
:1004D000BF2FB11D5D968C91928D9F5F9F73928F00
:1004E00090E008958FEF9FEF0895FC01918D828D2C
:1004F000981731F0828DE80FF11D858D90E00895F9
:100500008FEF9FEF0895FC01918D228D892F90E050
:10051000805C9F4F821B91098F739927089582E415
:1005200093E00E94830221E0892B09F420E0822FCE
:10053000089580E090E0892B29F00E948F028111BC
:100540000C9400000895FC01A48DA80FB92FB11DD3
:10055000A35ABF4F2C91848D90E001968F739927F9
:10056000848FA689B7892C93A089B1898C918370D7
:1005700080648C93938D848D981306C00288F389D0
:10058000E02D80818F7D80830895EF92FF920F93FD
:100590001F93CF93DF93EC0181E0888F9B8D8C8D2F
:1005A00098131AC0E889F989808185FF15C09FB723
:1005B000F894EE89FF896083E889F98980818370E6
:1005C000806480839FBF81E090E0DF91CF911F9195
:1005D0000F91FF90EF900895F62E0B8D10E00F5FB6
:1005E0001F4F0F731127E02E8C8D8E110CC00FB68C
:1005F00007FCFACFE889F989808185FFF5CFCE0124
:100600000E94A302F1CFEB8DEC0FFD2FF11DE35AF9
:10061000FF4FF0829FB7F8940B8FEA89FB898081A6
:100620008062CFCFCF93DF93EC01888D8823B9F020
:10063000AA89BB89E889F9898C9185FD03C08081ED
:1006400086FD0DC00FB607FCF7CF8C9185FFF2CF6A
:10065000808185FFEDCFCE010E94A302E9CFDF911B
:10066000CF910895833081F028F4813099F0823061
:10067000A9F008958730A9F08830C9F08430B1F42A
:10068000809180008F7D03C0809180008F77809360
:100690008000089584B58F7784BD089584B58F7DDB
:1006A000FBCF8091B0008F778093B0000895809148
:1006B000B0008F7DF9CFCF93DF93282F30E0F90181
:1006C000E053FE4F8491F901EE5FFD4FD491F901A3
:1006D000E251FE4FC491CC23A1F081110E9432035C
:1006E000EC2FF0E0EE0FFF1FEC51FE4FA591B491FF
:1006F000EC91ED2381E090E009F480E0DF91CF916F
:10070000089580E090E0FACF1F93CF93DF93282FD6
:1007100030E0F901E053FE4F8491F901EE5FFD4FA7
:10072000D491F901E251FE4FC491CC23A9F0162FC8
:1007300081110E943203EC2FF0E0EE0FFF1FEA530D
:10074000FE4FA591B4918FB7F894EC91111108C0A8
:10075000D095DE23DC938FBFDF91CF911F91089559
:10076000DE2BF8CF1092D6021092D50210921F0302
:100770001092410310921D0381E080931C0310929C
:10078000F70261E082E10E94840361E083E10E945C
:100790008403E9EBF0E080818E7F808380818D7F10
:1007A000808388E48093B80085E48093BC0086ED64
:1007B00091E09093D4028093D30287ED91E09093DF
:1007C000D2028093D1020895CF93DF9390E0FC0191
:1007D000EE5FFD4F249182519E4FFC01849188234E
:1007E000C9F090E0880F991FFC01E454FE4FA591D9
:1007F000B491FC01EA53FE4FC591D49161110DC033
:100800009FB7F8948C91209582238C93888128231C
:1008100028839FBFDF91CF910895623051F49FB735
:10082000F8943C91822F809583238C93E8812E2B22
:10083000EFCF8FB7F894EC912E2B2C938FBFEACF8C
:100840008E50806480937C0080917A0080648093D5
:100850007A0080917A0086FDFCCF8091780090919B
:10086000790008953FB7F8948091AE029091AF025D
:10087000A091B002B091B10226B5A89B05C02F3F50
:1008800019F00196A11DB11D3FBFBA2FA92F982FB6
:100890008827BC01CD01620F711D811D911D42E0B1
:1008A000660F771F881F991F4A95D1F708958F9279
:1008B0009F92AF92BF92CF92DF92EF92FF924B0145
:1008C0005C010E9432046B017C010E9432046C19AD
:1008D0007D098E099F09683E734081059105A8F343
:1008E00021E0821A9108A108B10888EEC80E83E0C1
:1008F000D81EE11CF11C81149104A104B10429F754
:10090000FF90EF90DF90CF90BF90AF909F908F902F
:100910000895CF92DF92EF92FF920F931F93CF93A0
:10092000DF93CDB7DEB7C054D1400FB6F894DEBF29
:100930000FBECDBF2FB7F8948091CD029091CE021B
:10094000A091CF02B091D0022FBF409104055091E9
:10095000050560910605709107058C019D01041B3A
:10096000150B260B370BB901A801403D5740610517
:10097000710590F480910C05C05CDE4F0FB6F894C1
:10098000DEBF0FBECDBFDF91CF911F910F91FF90C2
:10099000EF90DF90CF900895809304059093050524
:1009A000A0930605B09307051092FF041092FE0471
:1009B0001092FD041092FC041092FB0461E08091FF
:1009C00000050E9484036AEF70E080E090E00E94DE
:1009D000570461E0809100050E94E40360E080918B
:1009E00000050E94840364E170E080E090E00E94D2
:1009F0005704F89461E0809100050E9484038BE91C
:100A000090E00197F1F762E0809100050E94E40315
:100A100083E290E00197F1F780E00E94D801672B14
:100A2000682B692B29F410920C05789480E0A4CFF0
:100A300081E00E94D801672B682B692BA1F38E01FE
:100A40000F5F1F4F6E012FEBC21A2EEFD20A7801F3
:100A500080E00E94D801F7016083718382839383D1
:100A600081E00E94D801F7016483758386839783B0
:100A7000F8E0EF0EF11CEC14FD0451F7789430E02F
:100A800020E0F801C080D180E280F380448155816C
:100A900066817781C114D104E104F10429F0411584
:100AA00051056105710519F410920C05BFCFF901CC
:100AB00083E0F595E7958A95E1F7E550FB4F808156
:100AC000880FC416D506E606F70610F180832F5F5F
:100AD0003F4F085F1F4F2832310599F64091FF04C0
:100AE0002091FB048091FC04280F3327331F809151
:100AF000FD04280F311D8091FE04820F932F911D5C
:100B000099274817190681F681E080930C0534CFA8
:100B10008160DCCF0895CF93DF93FC0110821182B6
:100B200012821382148215821682EC012796DC0150
:100B30001F961992AC17BD07E1F77F961D921D9283
:100B4000EA17FB07D9F7DF91CF91089590E0FC01F8
:100B5000EE0FFF1FE851FE4FA591B4912C91FC01BF
:100B6000E655FD4F30812083880F991FFC01EC5E14
:100B7000FE4F0190F081E02D8081089585ED8093F6
:100B8000BC008091BC0084FDFCCF10921D03089531
:100B900020915702260F3327331F21323105ECF401
:100BA00020911D03FC0190E080E0243069F082E098
:100BB0000895A09157022191AC01495C5D4FA40FAB
:100BC000B52FB11D2C930196861798F3809157028B
:100BD000680F6093570280E0089581E008950895BA
:100BE000E091D6028091D502E81730F4F0E0E952A6
:100BF000FD4F808190E008958FEF9FEF08959091D1
:100C0000D6028091D5022FEF3FEF981748F4E92FD5
:100C1000F0E0E952FD4F208130E09F5F9093D602D3
:100C2000C9010895CF92DF92EF92FF920F931F9325
:100C3000CF93DF937C01CB018A0120911E032223F5
:100C400089F0EB016B01C40ED51ECC15DD0569F0F2
:100C50006991D701ED91FC910190F081E02DC701E0
:100C60000995F3CF642F0E94C805C801DF91CF9189
:100C70001F910F91FF90EF90DF90CF900895CF9349
:100C8000DF931F92CDB7DEB7698320911E03222325
:100C9000F9F020914103203258F021E030E0FC01CE
:100CA0003383228390E080E00F90DF91CF9108950D
:100CB00080911F03E82FF0E0E05EFC4F9981908364
:100CC0008F5F80931F038093410381E090E0ECCF1E
:100CD00061E0CE0101960E94C805F7CFECEDF4E08B
:100CE000918162818081238131E030931E032093C2
:100CF000400310921F031092410360956923682BF3
:100D00008FED93E00E943F0681E00C943701FC01D7
:100D1000248131E030931E032093400310921F037F
:100D2000109241038385682B8FED93E00E943F066C
:100D300081E00C94370190E080E008950F931F93B9
:100D40008FB7F8940091CD021091CE022091CF027E
:100D50003091D0028FBF40913302509134026091A4
:100D6000350270913602041B150B260B370B809150
:100D7000B6029091B702A091B802B091B902083EB4
:100D8000134021053105C0F00196A11DB11D8093CE
:100D9000B6029093B702A093B802B093B90248513B
:100DA0005C4F6F4F7F4F40933302509334026093F8
:100DB000350270933602C4CF4091B2025091B30213
:100DC0006091B4027091B50284179507A607B70722
:100DD000C8F1E091BA02F091BB02309799F1099500
:100DE0006115710581059105C1F16093B60270939B
:100DF000B7028093B8029093B902645D7E4F8F4F23
:100E00009F4F6093B2027093B3028093B4029093A9
:100E1000B50282E090E09093BD028093BC022FB7B0
:100E2000F8948091CD029091CE02A091CF02B09122
:100E3000D0022FBF8093330290933402A0933502E7
:100E4000B09336026091B6027091B7028091B802F9
:100E50009091B9021F910F9108958091B6029091DF
:100E6000B702A091B802B091B902845D9E4FAF4F16
:100E7000BF4F8093B2029093B302A093B402B09399
:100E8000B50281E090E02091BC023091BD02232B9D
:100E900011F490E080E09093BD028093BC02D2CF29
:100EA0004F925F926F927F928F929F92AF92BF927A
:100EB000CF92DF92EF92FF920F931F93CF93DF9326
:100EC0004B015C0180912F0290913002A091310280
:100ED000B091320288159905AA05BB0509F4C6C070
:100EE0008CE3C82ED12CE12CF12CC501A701960171
:100EF0000E94E01C6093BF02CA01B901A7019601DC
:100F00000E94E01C6093C002C501B40120E13EE0F4
:100F100040E050E00E94E01CCA01B90128E130E045
:100F200040E050E00E94E01C6093C102C501B401A2
:100F300020E831E541E050E00E94E01C69017A01BF
:100F4000CA01B9016C5F7F4F8F4F9F4F27E030E0A0
:100F500040E050E00E94E01C6F5F6093C202412CB1
:100F6000512C320140E004E610E0C0E9D1E0242F2A
:100F700030E02E54384FF901E370FF273097F9F431
:100F8000C901B8010E94CC1C892B31F4C901BE01F2
:100F90000E94CC1C892B99F48EE691E0A0E0B0E091
:100FA000480E591E6A1E7B1ED301C201AA27BB2709
:100FB000C816D906EA06FB0638F04F5FD8CF8DE693
:100FC00091E0A0E0B0E0ECCF4093C502C90164E637
:100FD00070E00E94CC1CEC01C90160E971E00E9444
:100FE000CC1C309721F42097D9F40097C9F04DE636
:100FF00051E060E070E0441A550A660A770AC418A6
:10100000D508E608F708A8E0B1E020E0213069F44F
:101010003097E9F5209711F40097C9F54DE106C026
:101020004EE651E060E070E0E6CF4C9150E070E0B9
:1010300060E031E0320FC416D506E606F70640F050
:10104000C41AD50AE60AF70A1196232F3C30F1F6A6
:101050002F5F2093C402C394C092C30280922F02D8
:1010600090923002A0923102B0923202DF91CF9181
:101070001F910F91FF90EF90DF90CF90BF90AF90B6
:101080009F908F907F906F905F904F9008954CE16C
:10109000CDCF2F923F924F925F926F927F928F921D
:1010A0009F92AF92BF92CF92DF92EF92FF920F93F7
:1010B0001F93CF93DF9381E080931E0388E6809394
:1010C000400310921F031092410360E08FED93E004
:1010D0000E943F0681E00E9437018823B1F060E062
:1010E00070E0CB01DF91CF911F910F91FF90EF90B6
:1010F000DF90CF90BF90AF909F908F907F906F9038
:101100005F904F903F902F90089567E088E60E948F
:1011100094011092D6028093D502873000F38FEDB0
:1011200093E00E94FF05D82F82958770CAE09D2F1B
:101130009F70492E8C9F400C11248FED93E00E94EC
:10114000FF05982F92959F708F70582E9C9F500C82
:1011500011248FED93E00E94FF05982F92959370D4
:101160008F70382E9C9F300C11248FED93E00E94DD
:10117000FF058FED93E00E94FF05982F92959F70D9
:101180008F70282E9C9F200C11248FED93E00E94DD
:10119000FF05982F92959F708F70682E9C9F600C12
:1011A00011248FED93E00E94FF05982F92959F7078
:1011B000282F2F70225E9C9F200D1124D7FD8FCFEA
:1011C000A22FB0E020E833E341EE51E00E94121B71
:1011D0004B015C01E2EBF7E09D01C4E6D0E000E9E1
:1011E00011E0CF01825B97408217930784F12E5460
:1011F000384FC90164E670E00E94CC1C7C01C90133
:1012000060E971E00E94CC1C6C0108E011E0C1E0D3
:10121000D0E0712CF901E370FF27C615D7050CF05B
:101220003FC0C230D10569F5309759F5E114F1049A
:1012300019F4C114D10429F590E8890E9BE3991E95
:1012400096E2A91EB11C21960F5F1F4FE6CFCF017A
:1012500083709927892B99F4CF01BE010E94CC1C81
:10126000892B31F4CF01B8010E94CC1C892B39F4B1
:1012700080E8880E81E5981E81E0A81EB11C319699
:10128000B0CFD8018C91A82FB0E020E831E541E043
:1012900050E00E94121B860E971EA81EB91ED3CFC7
:1012A000252D30E0ACE3B0E00E94541B6B017C01C3
:1012B000C40CD11CE11CF11C232D30E0A0E1BEE0E8
:1012C0000E94541BC60ED71EE81EF91E822D8150A7
:1012D000990BDC0120E831E541E050E00E94211D3E
:1012E0006C0D7D1D8E1D9F1D680D791D8A1D9B1D1A
:1012F000F9CE0F931F93CF938C01C62F0E948706C0
:101300006C2F6460C8010E9487066C2F6B7FC80138
:101310000E94870683EC90E00197F1F7CF911F912F
:101320000F9108950F931F93CF93DF938C01D62FC6
:10133000C42F607F642B0E94790980E1D89FB0019F
:1013400011246C2BC801DF91CF911F910F910C9448
:10135000790941E00E94920981E090E008950F939D
:101360001F9360E0809131050E94840383E090E048
:101370000197F1F761E0809131050E94840383E2D7
:1013800090E00197F1F760E0809131050E948403BD
:1013900080913305909134059927FC01EE5FFD4F54
:1013A0006491FC01E251FE4FE491F0E0EE0FFF1F6B
:1013B000EC51FE4F859194910091350510913605C1
:1013C00020913705309138053F70462F0E94481014
:1013D000611571058105910529F06F5F7F4F8F4F72
:1013E0009F4F9F706093390570933A0580933B053A
:1013F00090933C05672B682B692B81F48091350510
:1014000090913605A0913705B09138058093390544
:1014100090933A05A0933B05B0933C056091390544
:1014200070913A0580913B0590913C051F910F9179
:101430000895FB0101900020E9F73197AF01461BA9
:10144000570BDC01ED91FC910280F381E02D0994B2
:10145000CF93DF93BC0182E493E00E94190AEC0170
:101460006AE471E082E493E00E94190A8C0F9D1FE8
:10147000DF91CF910895CF93DF93FC014481558193
:101480006081718182E493E00E942502EC016AE4AC
:1014900071E082E493E00E94190A8C0F9D1FDF9196
:1014A000CF910895AF92BF92CF92DF92EF92FF92C9
:1014B0000F931F93CF93DF93DC01CD90DC901197B6
:1014C000C114D10439F01496CD91DC918C017601D0
:1014D000209761F4DF91CF911F910F91FF90EF90D2
:1014E000DF90CF90BF90AF90089575015701BFEF87
:1014F000AB1ABB0AF7018081082E000C990B0E94E1
:10150000D219892B91F72197CC0DDD1D8881082EEA
:10151000000C990B0E94D219892B29F0CE15DF05FA
:1015200010F02197F3CFAE014F5F5F4F4E195F0967
:10153000D80115965C934E931497CE14DF0420F4D3
:10154000B701C6010E94251FD801ED91FC911197AA
:1015500014968D919C91E80FF91F1082BBCFFC016E
:1015600024813581232B39F421E0FB0180818823FC
:1015700049F020E007C0808191810E942E1F21E068
:10158000892BB9F7822F08950F931F93CF93DF9381
:10159000EC0188819981009759F02A813B812617B7
:1015A000370730F081E0DF91CF911F910F910895BF
:1015B0008B016F5F7F4F0E94681E009759F09983DF
:1015C00088831B830A832C813D81232B59F7FC01DF
:1015D0001082E8CF80E0E7CFEF92FF920F931F9346
:1015E000CF93DF936115710541F480E0DF91CF91D6
:1015F0001F910F91FF90EF90089541155105B1F0A3
:101600007B01EC010C811D81040F151FB8010E94A4
:10161000C40A882351F3288139818C819D81B701C7
:10162000820F931F0E94371F1D830C8381E0DECF42
:10163000CF93DF93EC0188819981009711F00E948C
:10164000DF1D198218821D821C821B821A82DF9183
:10165000CF910895CF93DF93EC01FB01019000201F
:10166000E9F73197AF01461B570B0E94EC0A811135
:1016700003C0CE010E94180BCE01DF91CF910895D7
:10168000CF93DF93EC01FB0144815581608171812F
:101690000E94EC0A811103C0CE010E94180BCE01FA
:1016A000DF91CF910895EF92FF920F931F93CF9305
:1016B000DF93EC017B018A01BA010E94C40A811107
:1016C0000BC0CE010E94180BCE01DF91CF911F916C
:1016D0000F91FF90EF9008951D830C83B7018881CF
:1016E00099810E94371FF0CFFB0101900020E9F79C
:1016F0003197AF01461B570B0C94530B0F931F935D
:10170000CF93DF93CDB7DEB729970FB6F894DEBF3E
:101710000FBECDBF8C01862FF8011182108213827B
:101720001282158214824AE0BE016F5F7F4F90E003
:101730000E948117BE016F5F7F4FC8010E94740B2A
:1017400029960FB6F894DEBF0FBECDBFDF91CF91C3
:101750001F910F9108950F931F93CF93DF93CDB7F0
:10176000DEB762970FB6F894DEBF0FBECDBF8C0117
:10177000CB01F80111821082138212821582148229
:101780004AE0BE016F5F7F4F0E946117BE016F5F2D
:101790007F4FC8010E94740B62960FB6F894DEBFAB
:1017A0000FBECDBFDF91CF911F910F910895CF93C1
:1017B000DF93EC01FB018617970749F06081718187
:1017C0006115710541F0448155810E94530BCE0192
:1017D000DF91CF9108950E94180BF9CFFC0111827F
:1017E00010821382128215821482FB010190002064
:1017F000E9F73197AF01461B570B0C94530BCF926F
:10180000DF92EF92FF920F931F93CF93DF936C01C0
:101810007B018A014617570720F48F2D7A01062F86
:10182000182F6CE471E0C6010E94EE0BC0912905EF
:10183000D0912A05EC16FD06F8F40C171D0708F4E4
:10184000E801E0912505F0912605EC0FFD1F1081C0
:10185000108260912505709126056E0D7F1DC601D1
:101860006115710599F00E94740B80912505909186
:101870002605C80FD91F1883C601DF91CF911F918C
:101880000F91FF90EF90DF90CF9008950E94180B7A
:10189000ECCFFC0180819181009711F00C94DF1D49
:1018A0000895EF92FF920F931F93CF93DF93CDB7DD
:1018B000DEB72C970FB6F894DEBF0FBECDBF8C01FC
:1018C0007B016DE471E0CE0107960E94EE0B8AE089
:1018D000E816F10444F441E050E06FE471E0CE0119
:1018E00007960E94EC0AB701CE0101960E94AB0B4D
:1018F0004D815E8169817A81CE0107960E94EC0A52
:10190000F801118210821382128215821482BE01A4
:10191000695F7F4FC8010E94D70BCE0101960E94DC
:10192000490CCE0107960E94490CC8012C960FB6AF
:10193000F894DEBF0FBECDBFDF91CF911F910F9105
:10194000FF90EF900895EF92FF920F931F93CF9324
:10195000DF93CDB7DEB762970FB6F894DEBF0FBE48
:10196000CDBFF82EE62E81E090E0A0E0B0E00F2C95
:1019700004C0880F991FAA1FBB1F0A94D2F7209199
:101980002E02662309F45FC0822B80932E0260E052
:1019900083E00E94840300912E0218E0602F661FEE
:1019A0006627661F82E00E948403000F61E084E0E6
:1019B0000E94840360E084E00E948403115071F768
:1019C00061E083E00E9484036E2DCE010D960E949B
:1019D0007E0B6F2DCE0107960E947E0B61E571E0B4
:1019E000CE0101960E94EE0BBE01695F7F4FCE01D2
:1019F00001960E94400B6CE272E00E942A0BBE012D
:101A0000635F7F4F0E94400B60E172E00E942A0BEF
:101A10000E943B0ACE0101960E94490CCE01079616
:101A20000E94490CCE010D960E94490C62960FB699
:101A3000F894DEBF0FBECDBFDF91CF911F910F9104
:101A4000FF90EF900895809582239FCFEF92FF92B1
:101A50000F931F93CF93DF93CDB7DEB7A1970FB648
:101A6000F894DEBF0FBECDBF7C01CB01BA01F701F8
:101A700011821082138212821582148242E0420F78
:101A80008E010F5F1F4F0E941C17009789F0BC0149
:101A9000C7010E94740BA1960FB6F894DEBF0FBE6B
:101AA000CDBFDF91CF911F910F91FF90EF900895DF
:101AB000C7010E94180BEFCF1F920F920FB60F9223
:101AC00011242F933F934F935F936F937F938F9343
:101AD0009F93AF93BF93EF93FF9382E493E00E94B1
:101AE000A302FF91EF91BF91AF919F918F917F9151
:101AF0006F915F914F913F912F910F900FBE0F907B
:101B00001F9018951F920F920FB60F9211242F93CA
:101B10008F939F93EF93FF93E0915203F0915303C0
:101B20008081E0915803F091590382FD1BC09081A0
:101B300080915B038F5F8F7320915C03821741F06C
:101B4000E0915B03F0E0EE5BFC4F958F80935B03CD
:101B5000FF91EF919F918F912F910F900FBE0F905A
:101B60001F9018958081F4CF1F920F920FB60F929D
:101B700011242F933F938F939F93AF93BF938091A3
:101B8000CD029091CE02A091CF02B091D0023091BF
:101B9000AD0223E0230F2D3758F50196A11DB11D8D
:101BA0002093AD028093CD029093CE02A093CF02FA
:101BB000B093D0028091AE029091AF02A091B0029A
:101BC000B091B1020196A11DB11D8093AE02909318
:101BD000AF02A093B002B093B102BF91AF919F91B9
:101BE0008F913F912F910F900FBE0F901F901895DE
:101BF00026E8230F0296A11DB11DD2CF1F920F928E
:101C00000FB60F9211242F933F934F935F936F93CF
:101C10007F938F939F93AF93BF93EF93FF938091A5
:101C2000EC030E945B032091F0033091F1032F5FDE
:101C30003F4F3093F1032093F0039091EF039536DB
:101C400018F096E09093EB039091EB03943009F435
:101C500066C0B8F49230F1F0933009F444C090912A
:101C6000EE03992309F46BC081117AC08091ED03D2
:101C7000882309F463C08091ED0361E00E9484032E
:101C80005EC0953009F457C0963049F791E09093C3
:101C9000BC044FC08111E3CF2091F0033091F103D8
:101CA0002436310528F41092F1031092F003D7CFB7
:101CB0001092BC041092EF03E091EF0391E09E0FAD
:101CC0009093EF03F0E02091F0033091F103EE0FD9
:101CD000FF1FE551FC4F308727831092F1031092CC
:101CE000F00393E019C0813009F0B9CFE091EF0320
:101CF00091E09E0F9093EF03F0E02091F00330917C
:101D0000F103EE0FFF1FE551FC4F30872783109240
:101D1000F1031092F00394E09093EB03A0CF88239B
:101D200059F22091F0033091F1032536310508F482
:101D300096CF95E0F1CF811192CFB5CF2D9AFF913B
:101D4000EF91BF91AF919F918F917F916F915F9133
:101D50004F913F912F910F900FBE0F901F901895AC
:101D60008091ED03882321F08091ED0360E086CF20
:101D70002D98E5CF1F920F920FB60F9211242F933B
:101D80003F934F935F936F937F938F939F93AF9303
:101D9000BF93EF93FF9382E00E94A605FF91EF911E
:101DA000BF91AF919F918F917F916F915F914F9173
:101DB0003F912F910F900FBE0F901F9018951F927B
:101DC0000F920FB60F9211242F933F934F935F936F
:101DD0006F937F938F939F93AF93BF93EF93FF93F3
:101DE00081E00E94A605FF91EF91BF91AF919F9175
:101DF0008F917F916F915F914F913F912F910F90B4
:101E00000FBE0F901F9018951F920F920FB60F9252
:101E100011242F933F934F935F936F937F938F93EF
:101E20009F93AF93BF93EF93FF9380E00E94A6052B
:101E3000FF91EF91BF91AF919F918F917F916F91A2
:101E40005F914F913F912F910F900FBE0F901F9078
:101E500018951F920F920FB60F9211242F933F9354
:101E60004F935F936F937F938F939F93AF93BF93A2
:101E7000EF93FF938091B900887F803609F44AC0C0
:101E8000F0F5883209F4A7C018F5803109F49BC039
:101E9000B8F4882309F4F9C0883009F494C0FF919C
:101EA000EF91BF91AF919F918F917F916F915F91D2
:101EB0004F913F912F910F900FBE0F901F9018954B
:101EC000883109F488C0803251F780931B0314C015
:101ED000803409F49DC040F48033B9F38833F9F6B7
:101EE00080931B0385ECB0C0803509F485C088352C
:101EF00009F496C0883499F60E94BE05D0CF88397F
:101F000009F48CC038F5883729F050F4883611F080
:101F1000803729F683E080931D031092790257C021
:101F2000883809F47BC0803919F0803809F0B7CFC0
:101F300080917902803208F071C0E091790281E0ED
:101F40008E0F809379028091BB00F0E0E75AFD4F3D
:101F500080833DC0803B39F0E0F4803A09F479C0D9
:101F6000883A09F09CCF84E080931D0310925802B8
:101F700010925702E091D302F091D402099580911A
:101F8000570281110FC081E08093570210923702EF
:101F900009C0803C09F4A6CF883C09F4A3CF883B54
:101FA00009F07DCFE091580281E08E0F80935802B6
:101FB000F0E0E95CFD4F80818093BB009091580276
:101FC0008091570229C08091F8028093BB0085EC74
:101FD0008093BC0064CF90911A03809119039817E5
:101FE00058F5E0911A0381E08E0F80931A03F0E018
:101FF000E750FD4F8081E9CFE0911A0381E08E0F19
:1020000080931A038091BB00F0E0E750FD4F80837E
:1020100090911A03809119039817C8F285E8D8CFD8
:10202000E0911A0381E08E0F80931A038091BB0028
:10203000F0E0E750FD4F808380911C0381115CCF5D
:1020400081E08093F70284EA8093BC0010921D0324
:1020500026CF85EC8093BC0010921D0380917902FD
:10206000803230F4E0917902F0E0E75AFD4F1082BF
:102070006091790270E0E091D102F091D20289E59D
:1020800092E00995109279020ACF10921B0334CF87
:10209000CF92DF92EF92FF920F931F93E82FF92FC9
:1020A00005C0015011092109310961F19081962380
:1020B0009417B9F305C0015011092109310911F133
:1020C000908196239413F7CFC12CD12CE12CF12CC5
:1020D0000AC08FEFC81AD80AE80AF80A0C151D05BD
:1020E0002E053F0579F080818623841791F36C2DAE
:1020F0007D2D8E2D9F2D1F910F91FF90EF90DF90E2
:10210000CF90089560E070E080E090E01F910F9123
:10211000FF90EF90DF90CF900895CF92DF92EF92F3
:10212000FF92E2E4F3E01382128288EEC82E83E08D
:10213000D82EE12CF12CC482D582E682F7828EE182
:1021400091E09183808385EC90E09587848784EC8F
:1021500090E09787868780EC90E0918B808B81EC74
:1021600090E0938B828B82EC90E0958B848B86EC55
:1021700090E0978B868B118E128E138E148E0E9498
:10218000B203EFEDF3E013821282C482D582E682BD
:10219000F78280E391E091838083E5E4F5E01382A8
:1021A000128282E491E09183808381E2848380E1E2
:1021B000818782E08287138661E08AE00E94E403DF
:1021C00060E08BE00E94E403E1E3F5E08AE090E068
:1021D000918380838BE090E09383828388EB9BE004
:1021E000A0E0B0E084839583A683B783EBEEF3E0B1
:1021F00087E0818313826CE471E08BE295E00E94BA
:10220000EE0B68E571E085E295E00E94EE0B68E573
:1022100071E08FE195E00E94EE0B6CE471E089E1E2
:1022200095E00E94EE0B6CE471E083E195E00E9482
:10223000EE0B6CE471E08DE095E00E94EE0BABEFED
:10224000B4E086E015968C9315978BE016968C93E8
:102250001697E8E0F2E0E4911796EC931797E4EF15
:10226000F1E0E4911896EC93189740E85EE360E0A3
:1022700070E01D964D935D936D937C9350978CED1C
:1022800094E00E948B058DEB94E0FF90EF90DF903F
:10229000CF900C948B05CF93DF93CDB7DEB7A49787
:1022A0000FB6F894DEBF0FBECDBF789484B58260C0
:1022B00084BD84B5816084BD85B5826085BD85B5EA
:1022C000816085BD80916E00816080936E00109268
:1022D00081008091810082608093810080918100E3
:1022E0008160809381008091800081608093800074
:1022F0008091B10084608093B1008091B0008160D2
:102300008093B00080917A00846080937A008091FD
:102310007A00826080937A0080917A008160809355
:102320007A0080917A00806880937A001092C100D0
:102330000E94B20310924A0580914F05823018F036
:1023400098E090934A0580934D0562E370E080E049
:1023500090E00E9457046091500585E495E00E944A
:10236000870668EE73E080E090E00E94570460E327
:1023700085E495E00E9479090BE416E4C801019711
:10238000F1F760E385E495E00E947909C8010197BF
:10239000F1F760E385E495E00E94790983E592E036
:1023A0000197F1F760E285E495E00E947909609178
:1023B0004A05606240E085E495E00E94920984E06D
:1023C00080934B0540E06CE085E495E00E94920923
:1023D00040E061E085E495E00E9492090BE31FE193
:1023E000C8010197F1F742E0F42EF0924C0540E06D
:1023F00066E085E495E00E94920940E062E085E4B1
:1024000095E00E949209C8010197F1F788E0809356
:10241000500560E085E495E00E9487066AE571E07A
:1024200085E495E00E94190A61E08AE00E94E403D5
:1024300060E08BE00E94E403E0915203F0915303CB
:10244000F082E0914E03F0914F031082E09150032F
:10245000F091510380E1808310925A03E09156037A
:10246000F091570386E08083E0915403F091550387
:10247000808180618083E0915403F09155038081D5
:1024800088608083E0915403F091550380818068D7
:102490008083E0915403F091550380818F7D808388
:1024A00080E691E00E94280A80E28093DF040E9487
:1024B000B2038091DD048093E00461E08091DF0449
:1024C0000E9494011092D6028093D502811101C01E
:1024D000FFCF8FED93E00E94FF058093DD04809194
:1024E000DE048E7F8093DE048091DC048E7F8093F7
:1024F000DC040E946E068091DE048E7F8093DE04F1
:102500008091DC048E7F8093DC040E946E068091B3
:10251000DE048D7F8093DE048091DC048D7F8093C8
:10252000DC040E946E068091DE048D7F8093DE04C1
:102530008091DC048D7F8093DC040E946E06809184
:10254000DE048B7F8093DE048091DC048B7F80939C
:10255000DC040E946E068091DE04877F8093DE0497
:102560008091DC04877F8093DC040E946E0661E02A
:1025700083E00E94E40361E084E00E94E40361E000
:1025800082E00E94E40360E089E00E94E40361E0ED
:1025900088E00E94E40360E088E00E94840389E40C
:1025A00098E09093BB028093BA028091B60290911A
:1025B000B702A091B802B091B9028093B202909391
:1025C000B302A093B402B093B5020E949E060E948B
:1025D0009E068091BC029091BD02029709F455C0FD
:1025E00086E691E00E94280A62E0809100050E9440
:1025F000E40380E398EFAFEFBFEF8093040590937F
:102600000505A0930605B09307053AE3432E512C28
:10261000612C712C01E060E676E0CE0101960E940B
:10262000AB0BCE0101960E943B0ACE0101960E949F
:10263000490C6CE271E080E090E00E9457048091C8
:1026400001018F3F61F01092000161E08091CC02A6
:10265000811160E06093CC0280E00E94A30C82E4D0
:1026600093E00E94830218161906BCF461E070E042
:1026700080E090E00E94570482E493E00E946102AF
:10268000803431F40093BE02EACF82E891E0AACF11
:10269000853209F09BC20093BE0285E295E00E945C
:1026A000520A8FE195E00E94520A6CE471E085E2E3
:1026B00095E00E94AF0A882341F06CE471E08FE15D
:1026C00095E00E94AF0A811172C06EE971E085E267
:1026D00095E00E94AF0A882399F080911F059091A0
:1026E0002005009709F485C20E943A1721E0672B64
:1026F000682B692B09F020E0622F88E00E94840398
:102700004091290550912A054150510970E060E03F
:10271000CE0107960E94FF0B6AEA71E0CE01079690
:102720000E94AF0A882321F14091290550912A0582
:10273000BA0161507109CE0101960E94FF0B809190
:102740001F059091200510E0009719F00E943A179C
:10275000162F89819A81009709F44FC20E943A1777
:10276000862F612F0E94A30CCE0101960E94490C76
:1027700069EB71E085E295E00E94AF0A882329F0B9
:102780006091C80281E00E94A30C68E571E085E2D7
:1027900095E00E94740B68E571E08FE195E00E947E
:1027A000740B1092BE02CE0107960E94490C61E0A4
:1027B00070E080E090E00E9457048091CA029091FE
:1027C000CB02C12CD12C20EFE22E22E4F22E892B59
:1027D00009F048C00E94AF096091390570913A052F
:1027E00080913B0590913C05A30192010E94021D3E
:1027F00020933D0530933E0540933F05509340059F
:10280000CA01B9010E94F2196B017C0164E670E013
:1028100080E090E00E94570420E030E040EA51E47C
:10282000C701B6010E94EB1987FF1CC00E94AF09C7
:102830006091390570913A0580913B0590913C0576
:10284000A30192010E94021D20933D0530933E0595
:1028500040933F0550934005CA01B9010E94F21907
:102860006B017C0189E00E945B03019751F020E03D
:1028700030E040EA51E4C701B6010E94EB1987FF3E
:1028800069C062E370E080E090E00E94570461E07C
:102890008091C8029091C902892B09F060E0862FCF
:1028A00090E09093C9028093C80281E00E94A30C3B
:1028B00061E088E00E9484036091C8027091C902BF
:1028C000CE0101960E94AB0B64EC71E0CE0107963D
:1028D0000E94EE0BBE016F5F7F4FCE0107960E94F4
:1028E000400B60E172E00E942A0B0E943B0ACE017D
:1028F00007960E94490CCE0101960E94490C22E0E5
:10290000B701A601CE0101960E94260DCE010196C7
:102910000E943B0ACE0101960E94490C89E00E9468
:102920005B03019709F46BC120E030E040EA51E419
:10293000C701B6010E94EB1987FD61C168E270E032
:1029400080E090E00E94570480ED97E09093CB02E6
:102950008093CA028091CA029091CB02009729F01D
:1029600001979093CB028093CA028091C602909106
:10297000C7028838934109F03DC21092C7021092F5
:10298000C60280E10E9420049C01990F440B550B64
:1029900060E070E48CE990E00E94021DCA01B90178
:1029A00060517742810991090E94F2190E944A1CE4
:1029B0006B017C0129E537E44CEB53E30E94511A8B
:1029C000A70196010E94511A23E73FE745E759E323
:1029D0000E94641BA70196010E94511A2BEE3FEF43
:1029E00043E95AE30E94641B9B01AC0160E070E084
:1029F00080E89FE30E94D01B23E333E948E853E4D7
:102A00000E94631BAB01BC0121E0CE0101960E9434
:102A1000260D60ED71E0CE0107960E94EE0BBE011F
:102A20006F5F7F4FCE0107960E94400B60E172E01E
:102A30000E942A0B0E943B0ACE0107960E94490C75
:102A4000CE0101960E94490C81E10E942004BC0144
:102A5000990F880B990B0E94F219AB01BC0121E080
:102A6000CE0101960E94260D61EE71E0CE0107961F
:102A70000E94EE0BBE016F5F7F4FCE0107960E9452
:102A8000400B60E172E00E942A0B0E943B0ACE01DB
:102A900007960E94490CCE0101960E94490C6CE4F5
:102AA00071E0CE0149960E94EE0B0E949E060E94A4
:102AB00050076091BF0270E0CE0101960E94510C58
:102AC0000E949E060E9450076091C00270E0CE01F5
:102AD00007960E94510C0E949E060E94500760912A
:102AE000C10270E0CE0143960E94AB0B1E861D868C
:102AF000188A1F861A8A198ABE016D5E7F4FCE0121
:102B00000D960E94D70BBE01695F7F4FCE010D96D7
:102B10000E94400BBE016F5F7F4F0E94400BBC01C3
:102B2000CE0149960E94D70B18A21F8E1AA219A295
:102B30001CA21BA2BC01CE014F960E94D70BCE0156
:102B40000D960E94490CCE0143960E94490CCE017D
:102B500007960E94490CCE0101960E94490CCE01B5
:102B600049960E94490C62EF71E0CE0101960E94E5
:102B7000EE0BBE01615E7F4FCE0101960E94400BBD
:102B800060E172E00E942A0B0E943B0ACE0101968E
:102B90000E94490CCE014F960E94490C88E00E9489
:102BA0005B030E948904882351F0809101058B30DA
:102BB00009F448C020F08551823008F461C0812CAE
:102BC000912C90ECA92E9FE7B92E45C09091BE02A2
:102BD00089831A8241E050E0BE016F5F7F4F9111FF
:102BE00005C085E295E00E94EC0A39CD8FE195E0C1
:102BF000FACF60E070E0CB0179CD80E0B2CD0E94E9
:102C0000AF096091390570913A0580913B0590912B
:102C10003C05A30192010E94021D20933D053093C3
:102C20003E0540933F0550934005CA01B9010E94FB
:102C3000F2196B017C0165E070E080E090E00E9499
:102C400057046CCE6091FB0470E090E080E00E943D
:102C5000F0194B015C010E948904882309F44AC0E1
:102C6000809101058B3069F120F08551823008F4A4
:102C700052C0C12CD12C80ECE82E8FE7F82E2AC050
:102C80006091FB0470E090E080E00E94F01920E089
:102C900030E040E853E40E94511A6B017C016091DE
:102CA000FC0470E090E080E00E94F219A701960118
:102CB0000E94641B2DEC3CEC4CEC5DE30E94511A2D
:102CC000C8CF6091FD0470E090E080E00E94F019B0
:102CD0006B017C01A5019401C501B4010E94921C05
:102CE000811108C0A7019601C701B6010E94921C7C
:102CF0008823E1F181E092E00E94280A80E090E0E0
:102D0000892B09F488CC0E948F02882309F482CC95
:102D10000E9400007FCC1091FD04612F6F7770E05E
:102D200090E080E00E94F21920E030E040E853E4B7
:102D30000E94511A6B017C016091FE0470E090E0EA
:102D400080E00E94F219A70196010E94641B2DECFD
:102D50003CEC4CEC5DE30E94511A6B017C0117FFC7
:102D6000B9CFF7FAF094F7F8F094B4CF22E0B701B6
:102D7000A601CE0101960E94260D62E172E0CE010D
:102D800007960E94EE0BBE016F5F7F4FCE01079644
:102D90000E94400B60E172E00E942A0B0E943B0AF5
:102DA000CE0107960E94490CCE0101960E94490C63
:102DB00022E0B501A401CE0101960E94260D60E239
:102DC00072E0CE0107960E94EE0BBE016F5F7F4F4F
:102DD000CE0107960E94400B60E172E00E942A0B30
:102DE0000E943B0ACE0107960E94490CCE01019633
:102DF0000E94490C8091C6029091C702019690935F
:102E0000C7028093C6027ACF8DE095E00E94490CFC
:102E100083E195E00E94490C89E195E00E94490C0C
:102E20008FE195E00E94490C85E295E00E94490CF3
:102E30008BE295E00C94490CEF920F931F93CF9384
:102E4000DF93E80134E047FD34E1042E000C550B1C
:102E500057FF03C0519541955109E32E022F242FAE
:102E6000AE010E949B17CE01DF91CF911F910F9170
:102E7000EF9008951F93FC0199278827BC01E894DF
:102E800011911032E9F3193010F01E30C8F31B32E3
:102E900051F01D3249F4689406C00E946C17610F0E
:102EA000711D811D911D119110531A30B0F33EF424
:102EB00090958095709561957F4F8F4F9F4F1F9193
:102EC0000895BB274A3031F4992322F4BDE290954E
:102ED00081959F4F0C948217592F482F372F262FFB
:102EE000660F771F881F991F660F771F881F991F0E
:102EF000620F731F841F951F660F771F881F991F0E
:102F00000895BB27FB015527AA27880F991FAA1FE1
:102F1000A41710F0A41B83955051B9F7A05DAA33F4
:102F200008F0A95DA193009779F7B111B1931192BF
:102F3000CB010C94DB19A9E0B0E0E1EAF7E10C94D5
:102F4000231B6A01F22EB02E102FFBE3AF2EA0162A
:102F500008F41BE31F5F012F27E0AE014F5F5F4FB7
:102F60000E94FA18BC018981982F9970913009F458
:102F70003FC09BE2E1FC04C09E2D9170E0FC3AC092
:102F80005E2D5071E82FE87083FF46C084E09111F8
:102F900001C083E0EF2DE81B8F1508F0E0E0D601BB
:102FA0008E2F20E2552351F1992329F0D6019C93CD
:102FB000C60101966C0196012D5F3F4FE2FE24C0D1
:102FC0008EE4D6018C9391E411969C9311971296FE
:102FD0008C93D9018E2F90E281111BC0E20FF32F49
:102FE000F11D10828EEF9FEF2996ECE00C943F1BB1
:102FF0009DE2C6CF90E2C4CF2D9381508111FCCFCA
:10300000CE0ED11CE0E0D0CF8EE6D6018C9391E6B7
:10301000DBCF9D938150E0CF482F447082FF3DC0AD
:1030200084E0911101C083E08F1510F4EF2DE81BAF
:10303000D6018E2F20E2552309F1992329F0D601DC
:103040009C93C60101966C0196012D5F3F4FE2FEF5
:103050001BC089E4D6018C938EE411968C93119752
:1030600086E412968C93D9018E2F90E2882309F47E
:10307000B5CF9D938150FACF2D9381508111FCCF14
:10308000CE0ED11CE0E0D9CF89E6D6018C938EE636
:1030900011968C93119786E6E4CF9B0177FF02C0CF
:1030A00030E020E0A1E0B0E0911102C0B0E0A0E08B
:1030B000F9013196AE0FBF1F8B2C912CBB2009F468
:1030C00061C05401EFEFAE1ABE0AAA0DBB1DFA167D
:1030D0001B0619F014F04F2D4A1B511188C0E3FC58
:1030E00059C07601A42FB0E2A1114FC0C40ED11C6B
:1030F000992309F45BC040E0D6011196F601908354
:103100006D01552309F448C0012F060F9A81582FED
:10311000507184FF03C0913309F4015010160CF074
:1031200047C0093008F008E0EEE2FE2E5B01A01A6D
:10313000B10885019194819491082F3F320729F4B9
:10314000D601FC92F60131966F016217730794F174
:10315000021713077CF5DB01A21BB30BAA24A3946F
:10316000B12CAC0EBD1EAA0DBB1D11968C91215029
:103170003109D601119628153905F4F0F60180833E
:103180006D01DBCFB12CA12CA0CFF701B1937F0152
:10319000A150AACF9111B0CFD601942F50E302C015
:1031A0005D9391509111FCCFC40ED11C40E0ACCF87
:1031B00001E0BACF80E3DBCF6217730731F49633B7
:1031C00088F4953311F4552369F0F6018083FD01ED
:1031D000842F90E2811108C0A40FB11D1C9290E0D1
:1031E00080E002CF81E3F1CF91938150F3CF911131
:1031F00083CF8ACF283008F027E03327DA01990FF0
:10320000311D87FD916000966105710539F43260CA
:103210002E5F3D9330E32A95E1F708959F3F30F00C
:1032200080387105610509F03C5F3C5F3D9391304A
:1032300008F08068911DDF93CF931F930F93FF9247
:10324000EF92192F987F9695E92F96959695E90F0D
:10325000FF27E45EFE4F99273327EE24FF24A701C2
:10326000E70105900894079428F4360FE71EF81E2E
:10327000491F511D660F771F881F991F0694A1F7DC
:103280000590079428F4E70EF81E491F561FC11D2C
:10329000770F881F991F661F0694A1F70590079462
:1032A00028F4F80E491F561FC71FD11D880F991FFC
:1032B000661F771F0694A1F70590079420F4490F25
:1032C000561FC71FD81F990F661F771F881F0694A8
:1032D000A9F784911095177041F0D695C795579529
:1032E0004795F794E7941A95C1F7E2ECF0E06894FB
:1032F0001590159135916591959105907FE27395A3
:10330000E118F10A430B560BC90BD009C0F7E10CC9
:10331000F11E431F561FC91FD01D7EF4703311F4D8
:103320008A95E6CFE894015030F0080F0AF40027A0
:10333000021708F4202F2395022F7A3328F079E31F
:103340007D932A95E9F710C07D932A9589F6069416
:1033500097956795379517951794E118F10A430BE0
:10336000560BC90BD00998F023957E9173957A334B
:1033700008F070E37C932013B8F77E9170617D9321
:1033800030F0839571E37D9370E32A95E1F7112482
:10339000EF90FF900F911F91CF91DF91992787FDBB
:1033A0009095089591110C94BE1A803219F08950AD
:1033B0008550C8F70895DC01FC01672F71917723D0
:1033C000E1F7329704C07C916D9370836291AE17E0
:1033D000BF07C8F308950E942D1A08F481E00895EC
:1033E000E89409C097FB3EF490958095709561959F
:1033F0007F4F8F4F9F4F9923A9F0F92F96E9BB2755
:103400009395F695879577956795B795F111F8CFD0
:10341000FAF4BB0F11F460FF1BC06F5F7F4F8F4F3B
:103420009F4F16C0882311F096E911C0772321F031
:103430009EE8872F762F05C0662371F096E8862FC9
:1034400070E060E02AF09A95660F771F881FDAF720
:10345000880F9695879597F90895990F0008550F4D
:10346000AA0BE0E8FEEF16161706E807F907C0F00A
:1034700012161306E407F50798F0621B730B840B12
:10348000950B39F40A2661F0232B242B252B21F4EC
:1034900008950A2609F4A140A6958FEF811D811D8C
:1034A00008950E94641A0C94D81A0E94CA1A38F01F
:1034B0000E94D11A20F0952311F00C94C11A0C949B
:1034C000C71A11240C940C1B0E94E91A70F3959FE3
:1034D000C1F3950F50E0551F629FF001729FBB270B
:1034E000F00DB11D639FAA27F00DB11DAA1F649FA7
:1034F0006627B00DA11D661F829F2227B00DA11D5A
:10350000621F739FB00DA11D621F839FA00D611DDF
:10351000221F749F3327A00D611D231F849F600D00
:10352000211D822F762F6A2F11249F5750409AF029
:10353000F1F088234AF0EE0FFF1FBB1F661F771FB5
:10354000881F91505040A9F79E3F510580F00C9480
:10355000C11A0C940C1B5F3FE4F3983ED4F386959C
:1035600077956795B795F795E7959F5FC1F7FE2B20
:10357000880F911D9695879597F908959927882723
:10358000089597F99F6780E870E060E008959FEFE5
:1035900080EC089500240A941616170618060906EA
:1035A000089500240A9412161306140605060895B9
:1035B000092E0394000C11F4882352F0BB0F40F441
:1035C000BF2B11F460FF04C06F5F7F4F8F4F9F4F81
:1035D000089557FD9058440F551F59F05F3F71F003
:1035E0004795880F97FB991F61F09F3F79F087956A
:1035F0000895121613061406551FF2CF4695F1DFF3
:1036000008C0161617061806991FF1CF8695710582
:10361000610508940895E894BB2766277727CB01B6
:1036200097F908950E94541BA59F900DB49F900D8B
:10363000A49F800D911D112408952F923F924F92C7
:103640005F926F927F928F929F92AF92BF92CF9232
:10365000DF92EF92FF920F931F93CF93DF93CDB73B
:10366000DEB7CA1BDB0B0FB6F894DEBF0FBECDBFB3
:1036700009942A88398848885F846E847D848C8484
:103680009B84AA84B984C884DF80EE80FD800C818D
:103690001B81AA81B981CE0FD11D0FB6F894DEBF70
:1036A0000FBECDBFED010895A29FB001B39FC00131
:1036B000A39F700D811D1124911DB29F700D811D5E
:1036C0001124911D08955058BB27AA270E947B1BE7
:1036D0000C94D81A0E94CA1A38F00E94D11A20F00D
:1036E00039F49F3F19F426F40C94C71A0EF4E095B0
:1036F000E7FB0C94C11AE92F0E94E91A58F3BA1794
:10370000620773078407950720F079F4A6F50C94F7
:103710000B1B0EF4E0950B2EBA2FA02D0B01B90157
:1037200090010C01CA01A0011124FF27591B99F037
:10373000593F50F4503E68F11A16F040A22F232F43
:10374000342F4427585FF3CF469537952795A79593
:10375000F0405395C9F77EF41F16BA0B620B730B3A
:10376000840BBAF09150A1F0FF0FBB1F661F771FAB
:10377000881FC2F70EC0BA0F621F731F841F48F460
:10378000879577956795B795F7959E3F08F0B0CFE9
:103790009395880F08F09927EE0F979587950895D0
:1037A0000E94E41B0C94D81A0E94D11A58F00E946F
:1037B000CA1A40F029F45F3F29F00C94C11A511144
:1037C0000C940C1B0C94C71A0E94E91A68F39923F5
:1037D000B1F3552391F3951B550BBB27AA2762170D
:1037E0007307840738F09F5F5F4F220F331F441F1A
:1037F000AA1FA9F335D00E2E3AF0E0E832D091504E
:103800005040E695001CCAF72BD0FE2F29D0660F3A
:10381000771F881FBB1F261737074807AB07B0E87D
:1038200009F0BB0B802DBF01FF2793585F4F3AF083
:103830009E3F510578F00C94C11A0C940C1B5F3F0D
:10384000E4F3983ED4F3869577956795B795F79509
:103850009F5FC9F7880F911D9695879597F90895F1
:10386000E1E0660F771F881FBB1F6217730784078D
:10387000BA0720F0621B730B840BBA0BEE1F88F79C
:10388000E095089516F00C94971C0C94C71A689450
:103890000C94C11A0E94F11AA8F39923C1F3AEF354
:1038A000DF93CF931F930F93FF92C92FDD278823B8
:1038B0002AF02197660F771F881FDAF720E030E0A3
:1038C00040E85FEB9FE3883920F0803E38F0219696
:1038D0008F770E94641BE8E6F0E004C00E94641B3E
:1038E000E5E9F0E00E94A51C8B01BE01EC01FB2E76
:1038F0006F5771097595771F880B990B0E94F21904
:1039000028E132E741E35FE30E94641AAF2D98019A
:10391000AE01FF900F911F91CF91DF910E947B1B11
:103920000C94D81A0E942D1A880B990B08959F3F6A
:1039300031F0915020F4879577956795B795880F6A
:10394000911D9695879597F90895DF93CF931F93CF
:103950000F93FF92EF92DF927B018C01689406C077
:10396000DA2EEF010E94641AFE01E894A5912591D8
:10397000359145915591A6F3EF010E947B1BFE0105
:103980009701A801DA9469F7DF90EF90FF900F910B
:103990001F91CF91DF91089597FB072E16F40094A5
:1039A00007D077FD09D00E94291D07FC05D03EF401
:1039B000909581959F4F0895709561957F4F0895DB
:1039C000A1E21A2EAA1BBB1BFD010DC0AA1FBB1F23
:1039D000EE1FFF1FA217B307E407F50720F0A21B95
:1039E000B30BE40BF50B661F771F881F991F1A9402
:1039F00069F760957095809590959B01AC01BD012C
:103A0000CF010895052E97FB1EF400940E94191D06
:103A100057FD07D00E94E01C07FC03D04EF40C9425
:103A2000191D50954095309521953F4F4F4F5F4F51
:103A3000089590958095709561957F4F8F4F9F4F1A
:103A40000895B7FF0C94121B0E94121B821B930B4C
:103A50000895AA1BBB1B51E107C0AA1FBB1FA617D5
:103A6000B70710F0A61BB70B881F991F5A95A9F727
:103A700080959095BC01CD010895EE0FFF1F059034
:103A8000F491E02D09940F931F93CF93DF9382302D
:103A9000910510F482E090E0E0915305F091540517
:103AA00030E020E0B0E0A0E0309799F42115310536
:103AB00009F44AC0281B390B24303105D8F58A8116
:103AC0009B816115710589F1FB0193838283FE015E
:103AD00011C0408151810281138148175907E0F0DC
:103AE0004817590799F4109761F012960C931297A2
:103AF00013961C933296CF01DF91CF911F910F91B6
:103B000008950093530510935405F4CF2115310502
:103B100051F04217530738F0A901DB019A01BD01AA
:103B2000DF01F801C1CFEF01F9CF909354058093E5
:103B30005305CDCFFE01E20FF31F819391932250E5
:103B4000310939832883D7CF20915105309152050F
:103B5000232B41F42091040130910501309352054B
:103B60002093510520910201309103012115310567
:103B700041F42DB73EB74091060150910701241B37
:103B8000350BE0915105F0915205E217F307A0F4CF
:103B90002E1B3F0B2817390778F0AC014E5F5F4FA3
:103BA0002417350748F04E0F5F1F5093520540937E
:103BB0005105819391939FCFF0E0E0E09CCFCF93AC
:103BC000DF930097E9F0FC01329713821282A091F3
:103BD0005305B0915405ED0130E020E01097A1F4B9
:103BE00020813181820F931F209151053091520520
:103BF0002817390709F061C0F0935205E093510589
:103C0000DF91CF910895EA01CE17DF07E8F54A81E9
:103C10005B819E0141155105B1F7E901FB83EA8300
:103C200049915991C40FD51FEC17FD0761F48081AC
:103C300091810296840F951FE9019983888382817F
:103C400093819B838A83F0E0E0E012968D919C91B2
:103C500013970097B9F52D913C911197CD010296DC
:103C6000820F931F20915105309152052817390773
:103C700039F6309751F51092540510925305B093D0
:103C80005205A0935105BCCFD383C283408151819B
:103C9000840F951FC817D90761F44E5F5F4F888165
:103CA0009981480F591F518340838A819B81938357
:103CB00082832115310509F0B0CFF0935405E093CC
:103CC00053059ECFFD01DC01C0CF13821282D7CFF6
:103CD000B0E0A0E0EEE6FEE10C941F1B8C01009723
:103CE00051F4CB010E94431D8C01C801CDB7DEB752
:103CF000E0E10C943B1BFC01E60FF71F9C012250F6
:103D00003109E217F30708F49DC0D901CD91DC9188
:103D10001197C617D70798F0C530D10530F3CE01FB
:103D200004978617970708F3C61BD70B2297C193F2
:103D3000D1936D937C93CF010E94DF1DD6CF5B01A1
:103D4000AC1ABD0A4C018C0E9D1EA0915305B0917A
:103D50005405512C412CF12CE12C109731F5809118
:103D60005105909152058815990509F05CC04616D9
:103D7000570608F058C08091020190910301009706
:103D800041F48DB79EB74091060150910701841B05
:103D9000950BE817F90708F055C0F0935205E0932A
:103DA0005105F90171836083A0CF8D919C9111978A
:103DB00012966C90129713967C901397A815B905DC
:103DC00059F56C0142E0C40ED11CCA14DB0420F189
:103DD000AC014A195B09DA011296159780F06282EC
:103DE000738251834083D9016D937C93E114F10474
:103DF00071F0D7011396FC93EE93129776CF22962B
:103E00008C0F9D1FF90191838083F301EFCFF09315
:103E10005405E093530569CF4816590608F42C0160
:103E20007D01D3019ACFCB010E94431D7C010097F5
:103E300049F0AE01B8010E94251FC8010E94DF1D94
:103E4000870153CF10E000E050CFFB01DC0102C03E
:103E500001900D9241505040D8F70895FB01DC01CC
:103E60008D91019080190110D9F3990B0895FB01F0
:103E7000DC0101900D920020E1F7089511E0CCE003
:103E8000D1E004C0FE010E943D1D2196CD30D10736
:063E9000C9F7F894FFCF12
:103E9600FFFF0000550580001F1C1F1E1F1E1F1F51
:103EA6001E1F1E1F6B006C006D0000000000C50287
:103EB600250252021203830261027502000000000D
:103EC6003F0612069B06EF051E02FF05F0050000E1
:103ED6000000A90925029B068A050D0A003A003052
:103EE600002F682F726567002000505553483F0029
:103EF600537461727400556E61626C6520746F2034
:103F060073796E63207769746820746865205254EB
:103F160043005254432068617320736574207468AB
:103F2600652073797374656D2074696D65002F68FB
:103F3600616C6C2F6C69676874002F68616C6C2FFC
:103F46007368696674526567002F68616C6C2F6CC4
:103F5600616D70002F68616C6C2F6C616D70400034
:103F66002F68616C6C2F73656E73546865726D4053
:103F7600002F68616C6C2F73656E734C696768748B
:103F860040002F68616C6C2F74696D6545737040D5
:103F9600002F68616C6C2F6468743131406F6666FF
:103FA60025002F68616C6C2F646874313174400091
:0E3FB6002F68616C6C2F6468743131684000B4
:107800000C94343C0C94513C0C94513C0C94513CE1
:107810000C94513C0C94513C0C94513C0C94513CB4
:107820000C94513C0C94513C0C94513C0C94513CA4
:107830000C94513C0C94513C0C94513C0C94513C94
:107840000C94513C0C94513C0C94513C0C94513C84
:107850000C94513C0C94513C0C94513C0C94513C74
:107860000C94513C0C94513C11241FBECFEFD8E036
:10787000DEBFCDBF11E0A0E0B1E0ECE9FFE702C060
:1078800005900D92A230B107D9F712E0A2E0B1E065
:1078900001C01D92AD30B107E1F70E942D3D0C945F
:1078A000CC3F0C94003C982F959595959595959582
:1078B000905D8F708A307CF0282F295A8091C0000B
:1078C00085FFFCCF9093C6008091C00085FFFCCF60
:1078D0002093C6000895282F205DF0CF982F809127
:1078E000C00085FFFCCF9093C6000895EF92FF92F1
:1078F0000F931F93EE24FF2487018091C00087FD22
:1079000017C00894E11CF11C011D111D81E4E8164B
:1079100082E4F8068FE0080780E0180770F3E09132
:107920000401F091050109958091C00087FFE9CF1E
:107930008091C6001F910F91FF90EF9008950E94D3
:10794000763C982F8091C00085FFFCCF9093C600B5
:1079500091362CF490330CF09053892F089597555D
:10796000892F08951F930E949F3C182F0E949F3CCF
:107970001295107F810F1F9108951F93182F882350
:1079800021F00E94763C1150E1F71F9108951F935A
:10799000182F0E94763C803249F0809103018F5F5E
:1079A000809303018530C1F01F9108958091C0003C
:1079B00085FFFCCF84E18093C6008091C00085FFE5
:1079C000FCCF1093C6008091C00085FFFCCF80E102
:1079D0008093C6001F910895E0910401F091050184
:1079E00009951F9108950E94763C803241F0809164
:1079F00003018F5F80930301853081F008958091AA
:107A0000C00085FFFCCF84E18093C6008091C00058
:107A100085FFFCCF80E18093C6000895E0910401CA
:107A2000F09105010995089540E951E08823A1F0FE
:107A30002D9A28EE33E0FA013197F1F721503040CA
:107A4000D1F72D9828EE33E0FA013197F1F7215064
:107A50003040D1F7815061F708953F924F925F9285
:107A60006F927F928F929F92AF92BF92CF92DF924E
:107A7000EF92FF920F931F93CF93DF93000080E16B
:107A80008093C4001092C50088E18093C10086E015
:107A90008093C2005098589A259A81E00E94143D24
:107AA00024E1F22E9EE1E92E85E9D82E0FE0C02ECA
:107AB00010E1B12EAA24A394B1E49B2EA6E58A2E50
:107AC000F2E57F2EE0E26E2E79E4572E63E5462E36
:107AD00050E5352E0E94763C8033B1F18133B9F107
:107AE000803409F46FC0813409F476C0823409F41B
:107AF00085C0853409F488C0803531F1823521F1A3
:107B0000813511F1853509F485C0863509F48DC0BC
:107B1000843609F496C0843709F403C1853709F423
:107B200072C1863709F466C0809103018F5F80932C
:107B30000301853079F6E0910401F0910501099582
:107B40000E94763C803351F60E94F33CC3CF0E94E2
:107B5000763C803249F78091C00085FFFCCFF092DF
:107B6000C6008091C00085FFFCCF9092C600809136
:107B7000C00085FFFCCF8092C6008091C00085FFC9
:107B8000FCCF7092C6008091C00085FFFCCF609250
:107B9000C6008091C00085FFFCCF5092C600809146
:107BA000C00085FFFCCF4092C6008091C00085FFD9
:107BB000FCCF3092C6008091C00085FFFCCFB09210
:107BC000C60088CF0E94763C863808F4BDCF0E945C
:107BD000763C0E94F33C7ECF0E94763C803809F4CC
:107BE0009CC0813809F40BC1823809F43CC1883942
:107BF00009F48FC080E00E94C73C6CCF84E10E94F2
:107C0000BD3C0E94F33C66CF85E00E94BD3C0E94D3
:107C1000F33C60CF0E94763C809306010E94763C44
:107C2000809307010E94F33C55CF0E94763C80333D
:107C300009F41DC183E00E94BD3C80E00E94C73C66
:107C400049CF0E94763C809309020E94763C809343
:107C5000080280910C028E7F80930C020E94763C79
:107C6000853409F415C18091080290910902892B8D
:107C700089F000E010E00E94763CF801E85FFE4FDA
:107C800080830F5F1F4F80910802909109020817AF
:107C9000190788F30E94763C803209F045CF809125
:107CA0000C0280FF01C16091060170910701660F0F
:107CB000771F7093070160930601A0910802B091AD
:107CC00009021097C9F0E8E0F1E09B01AD014E0F09
:107CD0005F1FF999FECF32BD21BD819180BDFA9A17
:107CE000F99A2F5F3F4FE417F50799F76A0F7B1F4B
:107CF00070930701609306018091C00085FFFCCF5F
:107D0000F092C6008091C00085FFFCCFB092C60003
:107D1000E1CE83E00E94C73CDDCE82E00E94C73CFA
:107D2000D9CE0E94763C809309020E94763C8093D3
:107D300008028091060190910701880F991F909386
:107D40000701809306010E94763C853409F4A6C0A1
:107D500080910C028E7F80930C020E94763C8032D0
:107D600009F0B8CE8091C00085FFFCCFF092C6002C
:107D7000609108027091090261157105B9F140E046
:107D800050E080910C02A82FA170B82FB27011C0E2
:107D9000BB2309F45CC0E0910601F0910701319624
:107DA000F0930701E09306014F5F5F4F46175707B7
:107DB000E8F4AA2369F3F999FECF209106013091E6
:107DC000070132BD21BDF89A90B58091C00085FFB2
:107DD000FCCF9093C6002F5F3F4F30930701209355
:107DE00006014F5F5F4F4617570718F38091C00099
:107DF00085FDE5CE8091C00085FFF8CFE0CE81E023
:107E00000E94C73C67CE0E94763C803209F08CCE3F
:107E10008091C00085FFFCCFF092C6008091C00029
:107E200085FFFCCFE092C6008091C00085FFFCCFAB
:107E3000D092C6008091C00085FFFCCFC092C600E2
:107E40008091C00085FFFCCFB092C60043CEE09188
:107E50000601F091070194918091C00085FFFCCF4D
:107E60009093C6009CCF80E10E94C73C33CE0E9415
:107E7000763C0E94763C182F0E94763C112309F430
:107E800083C0113009F484C08FE00E94C73C22CE29
:107E900080910C02816080930C02E5CE80910C02EF
:107EA000816080930C0259CF809107018823880F4D
:107EB000880B8A2180930B02809106019091070123
:107EC000880F991F90930701809306018091080203
:107ED00080FF09C080910802909109020196909359
:107EE000090280930802F894F999FECF1127E091D6
:107EF0000601F0910701C8E0D1E08091080290915D
:107F00000902103091F40091570001700130D9F34B
:107F100003E000935700E89500915700017001308D
:107F2000D9F301E100935700E89509901990009169
:107F3000570001700130D9F301E000935700E89534
:107F40001395103498F011270091570001700130FB
:107F5000D9F305E000935700E895009157000170B0
:107F60000130D9F301E100935700E895329602976A
:107F700009F0C7CF103011F00296E5CF112480919F
:107F8000C00085FFB9CEBCCE8EE10E94C73CA2CD19
:0C7F900085E90E94C73C9ECDF894FFCF0D
:027F9C00800063
:040000030000780081
:00000001FF
