:100000000C940D010C9435010C9435010C943508B9
:100010000C9410080C94EB070C9435010C943107E8
:100020000C9435010C9435010C9435010C94350178
:100030000C9435010C9435010C9435010C94350168
:100040000C9493060C9435010C947B050C94550587
:100050000C9435010C9435010C9435010C94350148
:100060000C945A080C94350108000000BE922449F3
:10007000123EABAAAA2ABECDCCCC4C3E00000080DA
:10008000BEABAAAAAA3E00000000BF000000803F4D
:100090000000000000084178D3BB4387D1133D190D
:1000A0000E3CC3BD4282AD2B3E68EC8276BED98F3A
:1000B000E1A93E4C80EFFFBE01C4FF7F3F0000007E
:1000C000000000407A10F35A00A0724E1809001088
:1000D000A5D4E80000E87648170000E40B540200BD
:1000E00000CA9A3B000000E1F505000080969800E8
:1000F000000040420F000000A08601000000102711
:1001000000000000E80300000000640000000000A0
:100110000A00000000000100000000002C76D888D2
:10012000DC674F0823DFC1DFAE59E1B1B796E5E3E5
:10013000E453C63AE651997696E8E6C28426EB89FE
:100140008C9B62ED407C6FFCEFBC9C9F40F2BAA59B
:100150006FA5F490055A2AF75C936B6CF9676DC133
:100160001BFCE0E40D47FEF520E6B500D0ED902E37
:100170000300943577050080841E080000204E0A95
:10018000000000C80C333333330F986E12831141D3
:10019000EF8D2114893BE65516CFFEE6DB18D1849E
:1001A0004B381BF77C1D901DA4BBE42420328472C5
:1001B0005E228100C9F124ECA1E53D27000000008A
:1001C000240027002A0000000000250028002B0042
:1001D0000000000800020100000304070000000006
:1001E0000000000000000000230026002900040495
:1001F00004040404040402020202020203030303CF
:1002000003030102040810204080010204081020AA
:100210000102040810204A152D1011241FBECFEF33
:10022000D8E0DEBFCDBF25E0A2E3B2E001C01D9261
:10023000AF31B207E1F712E0A0E0B1E0ECE1FDE39D
:1002400002C005900D92A233B107D9F711E0CCE0BE
:10025000D1E004C02197FE010E94661CCB30D1077B
:10026000C9F70E9445100C94811E0C940000CF9297
:10027000DF92EF92FF920F931F93CF93DF936C0166
:100280007A018B01C0E0D0E0CE15DF0589F0D801FE
:100290006D918D01D601ED91FC910190F081E02DE1
:1002A000C6010995892B11F47E0102C02196ECCF7D
:1002B000C701DF91CF911F910F91FF90EF90DF90D9
:1002C000CF900895FC01538D448D252F30E0842F6D
:1002D00090E0821B930B541710F0CF96089501976E
:1002E0000895FC01918D828D981761F0828DDF0158
:1002F000A80FB11D5D968C91928D9F5F9F73928F19
:1003000090E008958FEF9FEF0895FC01918D828D0D
:10031000981731F0828DE80FF11D858D90E00895DA
:100320008FEF9FEF0895FC01918D228D892F90E032
:10033000805C9F4F821B91098F739927089585E4F4
:1003400093E00E94930121E0892B09F420E0822FA1
:100350000895FC01848DDF01A80FB11DA35ABF4F82
:100360002C91848D90E001968F739927848FA689B4
:10037000B7892C93A089B1898C9180648C93938DDB
:10038000848D981306C00288F389E02D80818F7DCB
:1003900080830895EF92FF920F931F93CF93DF9383
:1003A000EC0181E0888F9B8D8C8D981305C0E889C6
:1003B000F989808185FD24C0F62E0B8D10E00F5F3A
:1003C0001F4F0F731127E02E8C8DE8120CC00FB653
:1003D00007FCFACFE889F989808185FFF5CFCE0146
:1003E0000E94A901F1CF8B8DFE01E80FF11DE35AA8
:1003F000FF4FF0820B8FEA89FB898081806207C002
:10040000EE89FF896083E889F9898081806480832F
:1004100081E090E0DF91CF911F910F91FF90EF90DD
:100420000895CF93DF93EC01888D8823C9F0EA8982
:10043000FB89808185FD05C0A889B9898C9186FDDD
:100440000FC00FB607FCF5CF808185FFF2CFA889DA
:10045000B9898C9185FFEDCFCE010E94A901E7CF2C
:10046000DF91CF91089580E090E0892B29F00E94E0
:100470009F0181110C9400000895833081F028F4CD
:10048000813099F08230A1F008958730A9F088304A
:10049000B9F08430D1F4809180008F7D03C08091C9
:1004A00080008F7780938000089584B58F7702C095
:1004B00084B58F7D84BD08958091B0008F7703C08F
:1004C0008091B0008F7D8093B00008953FB7F8947D
:1004D0008091D7029091D802A091D902B091DA020E
:1004E00026B5A89B05C02F3F19F00196A11DB11D8F
:1004F0003FBFBA2FA92F982F8827820F911DA11DCA
:10050000B11DBC01CD0142E0660F771F881F991F06
:100510004A95D1F7089590E0FC01EE0FFF1FE851D6
:10052000FE4FA591B4912C91FC01ED52FD4F30810D
:100530002083880F991FFC01EE5EFE4F0190F08131
:10054000E02D808108958091E40390E02091E503FF
:10055000821B9109089585ED8093BC008091BC00B9
:1005600084FDFCCF10922203089540915D02262F56
:1005700030E0240F311D21323105DCF420912203BB
:100580002430C9F4FC0180E090E0861758F43091E3
:100590005D022191DC01A55CBD4FA30FB11D2C9321
:1005A0000196F3CF80915D02680F60935D0280E059
:1005B000089581E0089582E008950895E091E503AB
:1005C0008091E403E81730F4F0E0EE57FD4F8081AE
:1005D00090E008958FEF9FEF08959091E50380914B
:1005E000E403981750F4E92FF0E0EE57FD4F208117
:1005F00030E09F5F9093E50302C02FEF3FEFC9010A
:100600000895CF92DF92EF92FF920F931F93CF93B3
:10061000DF937C01262F972F8A0180912303882363
:1006200091F0C62FD72F6E01C40ED51ECC15DD0557
:1006300071F06991D701ED91FC910190F081E02D6D
:10064000C7010995F3CF642F822F0E94B502C8011C
:10065000DF91CF911F910F91FF90EF90DF90CF909E
:100660000895CF93DF931F92CDB7DEB769832091B2
:1006700023032223D1F02091E203203240F021E035
:1006800030E0FC013383228380E090E015C080914C
:10069000E303E82FF0E0EC5DFC4F998190838F5FDE
:1006A0008093E3038093E20305C061E0CE010196ED
:1006B0000E94B50281E090E00F90DF91CF91089504
:1006C000089580E090E0089508954F925F926F92B0
:1006D0007F928F929F92AF92BF92CF92DF92EF92D2
:1006E000FF920F931F93CF93DF93C1E0C093230337
:1006F00088E6809344031092E3031092E20360E0E3
:1007000086EE93E00E94310381E00E94F30D88237E
:1007100019F01092A202ABC0C093A20280912203F2
:100720008111FCCF81E080932203809321039FEF0E
:100730009093200310921F0396E090931E038093E2
:10074000FD028091FD02806D8093FD028091FC028C
:10075000813061F41092FC028091FD028093BB0015
:100760008091BC0083FDF8CF85EC01C085EE8093BD
:10077000BC00809122038130E1F380911F03873018
:1007800018F480911F0301C087E0AEEFB2E022E8C9
:1007900032E0F9019E2F921B981718F49D919193C6
:1007A000F9CF1092E5038093E403873008F45FC02B
:1007B00086EE93E00E94ED02182F982F969596955D
:1007C00096959E70492E440C440C940D812F8F7089
:1007D000492E480E86EE93E00E94ED02982F9295E6
:1007E0009F70282F2F70522E8AE0989F500C112452
:1007F00086EE93E00E94ED02282F269526952695F9
:100800002670622E660C660C260D982F9F70622E45
:10081000690E86EE93E00E94ED0286EE93E00E9460
:10082000ED02982F92959F708F70782E2AE0929FFC
:10083000700C112486EE93E00E94ED02C82F829581
:100840008F70CF709AE0899FC00D112486EE93E0DF
:100850000E94ED02282F2F70225E982F92959F7094
:10086000D22F8AE0989FD00D112417FF04C060E0BA
:1008700070E0CB0199C0AD2FB0E020E833E341EE4A
:1008800051E00E943B1A4B015C01E2EBF7E09D0155
:1008900084E6E82EF12C00E911E0CF01825B97405D
:1008A00082179307D4F4CF0183709927892B99F489
:1008B000CF01B7010E94F51B892B31F4CF01B8019C
:1008C0000E94F51B892B39F490E8890E91E5991E59
:1008D00091E0A91EB11C3196E0CF2E54384FC901CA
:1008E00064E670E00E94F51B7C01C90160E971E0DB
:1008F0000E94F51B6C0101E010E0D0E0F901E3700B
:10090000FF270C171D072CF50230110581F43097D5
:1009100071F4E114F10419F4C114D10441F420E894
:10092000820E2BE3921E26E2A21EB11C0FC0D8013C
:10093000AB5FBE4FAC91B0E020E831E541E050E064
:100940000E943B1A860E971EA81EB91E0F5F1F4FEE
:10095000D8CF252D30E0ACE3B0E00E947D1A6B01CA
:100960007C01C40CD11CE11CF11C262D30E0A0E15F
:10097000BEE00E947D1AC60ED71EE81EF91EA72DE6
:10098000B0E0119720E831E541E050E00E944A1CB8
:10099000DC01CB018C0D9D1DAE1DBF1DBC01CD0129
:1009A000680D791D8A1D9B1DDF91CF911F910F91BD
:1009B000FF90EF90DF90CF90BF90AF909F908F907F
:1009C0007F906F905F904F9008950F931F93CF93F8
:1009D000DF93CDB7DEB762970FB6F894DEBF0FBED8
:1009E000CDBF8C01CB01F8011182108213821282DB
:1009F0001582148250E0BE016F5F7F4F0E94501637
:100A0000BE016F5F7F4FC8010E94040D62960FB652
:100A1000F894DEBF0FBECDBFDF91CF911F910F9134
:100A20000895FB01DC0111961C921E9213961C92F4
:100A30001E92129715961C921E921497861797076E
:100A400049F0608171816115710521F04481558102
:100A50000C94E30C0895FC0111821082138212821F
:100A6000158214826115710551F0FB01019000207F
:100A7000E9F73197AF01461B570B0C94E30C08952F
:100A80006115710579F0FB0101900020E9F73197BC
:100A9000AF01461B570BDC01ED91FC910280F38105
:100AA000E02D099480E090E008951F920F920FB618
:100AB0000F9211242F933F934F935F936F937F93E4
:100AC0008F939F93AF93BF93EF93FF9385E493E04E
:100AD0000E94A901FF91EF91BF91AF919F918F91DA
:100AE0007F916F915F914F913F912F910F900FBE2A
:100AF0000F901F9018951F920F920FB60F9211240E
:100B00002F938F939F93EF93FF93E0915503F09171
:100B100056038081E0915B03F0915C0382FD12C07B
:100B2000908180915E038F5F8F7320915F038217A6
:100B300051F0E0915E03F0E0EB5BFC4F958F80930A
:100B40005E0301C08081FF91EF919F918F912F9162
:100B50000F900FBE0F901F901895CF93DF93282F03
:100B600030E0F901E053FE4F8491F901EE5FFD4F53
:100B7000D491F901E251FE4FC491CC2391F081113F
:100B80000E943D02EC2FF0E0EE0FFF1FEC51FE4FF4
:100B9000A591B491EC91ED2381E090E021F480E007
:100BA00002C080E090E0DF91CF9108951F93CF9332
:100BB000DF93282F30E0F901E053FE4F8491F901D3
:100BC000EE5FFD4FD491F901E251FE4FC491CC2369
:100BD000C9F0162F81110E943D02EC2FF0E0EE0FBC
:100BE000FF1FEA53FE4FA591B4918FB7F8941111EE
:100BF00005C09C91ED2FE095E92302C0EC91ED2B0F
:100C0000EC938FBFDF91CF911F910895CF93DF9326
:100C100090E0FC01EE5FFD4F2491FC01E251FE4F9C
:100C20008491882361F190E0880F991FFC01E454BE
:100C3000FE4FC591D491FC01EA53FE4FA591B491AA
:100C4000611109C09FB7F894888120958223888319
:100C5000EC912E230BC0623061F49FB7F894388179
:100C6000822F809583238883EC912E2B2C939FBF1A
:100C700006C08FB7F894E8812E2B28838FBFDF91B1
:100C8000CF9108958E3008F08E50877080648093E5
:100C90007C0080917A00806480937A0080917A0051
:100CA00086FDFCCF809178002091790090E0922B16
:100CB00008958F929F92AF92BF92CF92DF92EF9260
:100CC000FF926B017C010E9466024B015C01C11422
:100CD000D104E104F104F1F00E946602DC01CB01D1
:100CE00088199909AA09BB09883E9340A105B10555
:100CF00070F321E0C21AD108E108F10888EE880EED
:100D000083E0981EA11CB11CC114D104E104F104BC
:100D100019F7DDCFFF90EF90DF90CF90BF90AF90AD
:100D20009F908F9008951F920F920FB60F921124EB
:100D30002F933F938F939F93AF93BF938091F8022C
:100D40009091F902A091FA02B091FB023091D60283
:100D500023E0230F2D3720F40196A11DB11D05C0FE
:100D600026E8230F0296A11DB11D2093D602809381
:100D7000F8029093F902A093FA02B093FB028091DB
:100D8000D7029091D802A091D902B091DA020196CF
:100D9000A11DB11D8093D7029093D802A093D902D0
:100DA000B093DA02BF91AF919F918F913F912F91B4
:100DB0000F900FBE0F901F901895FC01248131E019
:100DC00030932303209344031092E3031092E20331
:100DD0008385682B86EE93E00E94310381E00C94BA
:100DE000F30D0F931F93CF938C01C62F0E94DD0646
:100DF0006C2F6460C8010E94DD066C2F6B7FC801F8
:100E00000E94DD0683EC90E00197F1F7CF911F91EE
:100E10000F910895FF920F931F93CF93DF931F922B
:100E2000CDB7DEB78C01F62E962F907F692F642BFD
:100E3000C80149830E94F10680E1F89EB0011124A7
:100E40004981642BC8010F90DF91CF911F910F91C1
:100E5000FF900C94F10641E00E940A0781E090E0C7
:100E600008951F920F920FB60F9211242F933F9364
:100E70004F935F936F937F938F939F93AF93BF93A2
:100E8000EF93FF938091F3030E94AD052091F70348
:100E90003091F8032F5F3F4F3093F8032093F7030F
:100EA0009091F603953618F096E09093F2039091A6
:100EB000F2039430C9F128F4923069F09330D1F004
:100EC0005EC0953009F451C0963009F058C091E0E9
:100ED0009093C30451C0811152C02091F703309107
:100EE000F8032436310508F442C01092C30410926E
:100EF000F6031CC0813009F042C0E091F60391E096
:100F00009E0F9093F603F0E02091F7033091F803E1
:100F1000EE0FFF1FEE50FC4F308727831092F8032F
:100F20001092F70394E029C0811117C0E091F603F5
:100F300091E09E0F9093F603F0E02091F70330913B
:100F4000F803EE0FFF1FEE50FC4F308727831092FF
:100F5000F8031092F70393E010C02091F70330914B
:100F6000F8032536310558F007C0811108C01092EA
:100F7000F8031092F70303C095E09093F203909169
:100F8000F5039923B9F081110AC08091F4038823F5
:100F900021F08091F40361E009C02D9A0BC080918B
:100FA000F403882331F08091F40360E00E94D605B9
:100FB00001C02D98FF91EF91BF91AF919F918F91BB
:100FC0007F916F915F914F913F912F910F900FBE45
:100FD0000F901F9018951F920F920FB60F92112429
:100FE0002F933F934F935F936F937F938F939F9331
:100FF000AF93BF93EF93FF9382E00E948B02FF9128
:10100000EF91BF91AF919F918F917F916F915F9180
:101010004F913F912F910F900FBE0F901F901895F9
:101020001F920F920FB60F9211242F933F934F935D
:101030005F936F937F938F939F93AF93BF93EF9340
:10104000FF9381E00E948B02FF91EF91BF91AF91DE
:101050009F918F917F916F915F914F913F912F91D0
:101060000F900FBE0F901F9018951F920F920FB602
:101070000F9211242F933F934F935F936F937F931E
:101080008F939F93AF93BF93EF93FF9380E00E9462
:101090008B02FF91EF91BF91AF919F918F917F91C3
:1010A0006F915F914F913F912F910F900FBE0F90D5
:1010B0001F9018951F920F920FB60F9211242F9325
:1010C0003F934F935F936F937F938F939F93AF93D0
:1010D000BF93EF93FF938091B900887F803609F426
:1010E0009CC068F5883209F45BC090F4803109F443
:1010F00054C038F4882309F4F6C0883009F44DC090
:10110000F6C0883109F44CC0803209F45DC0EFC0EC
:10111000803409F468C048F4803309F455C088333A
:1011200009F0E5C080932003D8C0803509F44FC092
:10113000883509F45DC0883409F0D9C0D6C0883933
:1011400009F4C7C0A8F4883709F467C038F48836B2
:1011500009F463C0803709F460C0C9C0883809F455
:10116000B8C0803909F45FC0803809F0C0C05BC0E6
:10117000803B09F486C038F4803A09F466C0883AA6
:1011800009F47FC0B4C0803C09F4A7C0883C09F4CE
:10119000A4C0883B09F48AC0AAC08091FD0210C097
:1011A00090911F0380911E03981770F5E0911F0323
:1011B00081E08E0F80931F03F0E0E250FD4F8081AD
:1011C0008093BB0085EC86C0809320038EC0E091A5
:1011D0001F0381E08E0F80931F038091BB00F0E01E
:1011E000E250FD4F808390911F0380911E036EC0DB
:1011F000E0911F0381E08E0F80931F038091BB005D
:10120000F0E0E250FD4F80838091210381116DC099
:1012100081E08093FC0284EA61C083E08093220332
:1012200010928102CFCF80918102803208F051C0AC
:10123000E091810281E08E0F809381028091BB005A
:10124000F0E0EF59FD4F8083BDCF85EC8093BC006B
:101250001092220380918102803230F4E091810269
:10126000F0E0EF59FD4F10826091810270E0E09153
:101270005F02F091600281E692E00995109281028E
:1012800036C084E08093220310925E0210925D02C9
:10129000E0915B02F0915C02099580915D02811101
:1012A00005C081E080935D0210923B02E0915E02F6
:1012B00081E08E0F80935E02F0E0E55CFD4F80815F
:1012C0008093BB0090915E0280915D02981708F4B4
:1012D00079CF85E88093BC000AC085EC8093BC0080
:1012E0001092220304C0109220030E94AB02FF91CF
:1012F000EF91BF91AF919F918F917F916F915F918E
:101300004F913F912F910F900FBE0F901F90189506
:101310001092220381E0809321031092FC0261E08D
:1013200082E10E94D60561E083E10E94D605E9EBE7
:10133000F0E080818E7F808380818D7F808388E450
:101340008093B80085E48093BC0008950F931F93A9
:101350008FB7F8940091F8021091F9022091FA02E7
:101360003091FB028FBF409137025091380260915B
:10137000390270913A02041B150B260B370B809132
:10138000DF029091E002A091E102B091E202083EFA
:10139000134021053105C0F00196A11DB11D8093B8
:1013A000DF029093E002A093E102B093E202485181
:1013B0005C4F6F4F7F4F40933702509338026093DA
:1013C000390270933A02C4CF4091DB025091DC02A3
:1013D0006091DD027091DE0284179507A607B707BA
:1013E00008F45FC0E091E302F091E402309709F461
:1013F00058C00995611571058105910581F16093CA
:10140000DF027093E0028093E1029093E202DC013C
:10141000CB01845D9E4FAF4FBF4F8093DB02909313
:10142000DC02A093DD02B093DE0282E090E09093B4
:10143000E6028093E5022FB7F8948091F80290912C
:10144000F902A091FA02B091FB022FBF80933702FC
:1014500090933802A0933902B0933A0222C080914F
:10146000DF029091E002A091E102B091E202845D7E
:101470009E4FAF4FBF4F8093DB029093DC02A0934F
:10148000DD02B093DE0281E090E02091E502309130
:10149000E602232B11F480E090E09093E602809323
:1014A000E5026091DF027091E0028091E10290918B
:1014B000E2021F910F9108954F925F926F927F9277
:1014C0008F929F92AF92BF92CF92DF92EF92FF9254
:1014D0000F931F93CF93DF934B015C0180913302F5
:1014E00090913402A0913502B09136028816990687
:1014F000AA06BB0609F4C2C08CE3C82ED12CE12C8D
:10150000F12CC501B401A70196010E94091C60934A
:10151000E702CA01B901A70196010E94091C609364
:10152000E802CA01B90128E130E040E050E00E9441
:10153000091C69017A016093E902CA01B9016C5F73
:101540007F4F8F4F9F4F27E030E040E050E00E94F8
:10155000091C6F5F6093EA02412C512C320140E07C
:1015600004E610E0C0E9D1E0242F30E02E54384FDB
:10157000F901E370FF27309789F4C901B8010E948F
:10158000F51B892B31F4C901BE010E94F51B892B83
:1015900029F48EE691E0A0E0B0E004C08DE691E091
:1015A000A0E0B0E0480E591E6A1E7B1ED301C201A6
:1015B000AA27BB27C816D906EA06FB0610F04F5F1C
:1015C000D3CF4093ED02309799F4C90164E670E0FF
:1015D0000E94F51B892B39F4C90160E971E00E9472
:1015E000F51B892B29F48EE691E0A0E0B0E004C061
:1015F0008DE691E0A0E0B0E0481A590A6A0A7B0A39
:10160000C418D508E608F708C90164E670E00E942E
:10161000F51BEC01C90160E971E00E94F51BA6E031
:10162000B1E020E0213039F4309749F4209729F4D3
:10163000009729F402C04C9103C04DE101C04CE178
:1016400050E060E070E0C416D506E606F70640F00C
:10165000C41AD50AE60AF70A2F5F11962C3011F743
:101660002F5F2093EC02C394C092EB02809233026E
:1016700090923402A0923502B0923602DF91CF915F
:101680001F910F91FF90EF90DF90CF90BF90AF90A0
:101690009F908F907F906F905F904F9008950F93E1
:1016A0001F93CF93DF93382F20913202672B79F06D
:1016B00041E050E060E070E004C0440F551F661F39
:1016C000771F8A95D2F7422B409332020FC081E0F8
:1016D00090E0A0E0B0E004C0880F991FAA1FBB1FD4
:1016E0003A95D2F78095822380933202009132029C
:1016F00060E083E00E94D605C7E0D0E010E0B801CA
:101700000C2E02C0759567950A94E2F761707727F1
:1017100082E00E94D60561E084E00E94D60560E088
:1017200084E00E94D605219750F761E083E0DF91C5
:10173000CF911F910F910C94D605EF92FF920F93CA
:101740001F93CF93DF93CDB7DEB72C970FB6F894E6
:10175000DEBF0FBECDBF8C017B0164E571E0CE0121
:1017600001960E942B058AE0E816F10444F441E05A
:1017700050E066E571E0CE0101960E94900C4AE0CF
:10178000B701CE0107960E94E5044B855C856F8109
:101790007885CE0101960E94900CBE016F5F7F4F4D
:1017A000C8010E941105CE0107960E944B0DCE0183
:1017B00001960E944B0DC8012C960FB6F894DEBF1F
:1017C0000FBECDBFDF91CF911F910F91FF90EF9092
:1017D00008950E94631EAF92BF92CF92DF92EF9264
:1017E000FF920F931F93CF93DF93DC01CD90DC909A
:1017F0001197C114D10409F442C01496CD91DC9123
:1018000015972097E1F18C0156017501BFEFAB1AD6
:10181000BB0AF7018081082E000C990B0E94FB186F
:10182000892B99F72197CC0DDD1D8881082E000C9E
:10183000990B0E94FB18892B91F4AE014F5F5F4F0B
:101840004E195F09D80115965C934E931497CE14E8
:10185000DF0450F4B701C6010E94681E05C0CE1512
:10186000DF0558F32197E1CFD801ED91FC91119755
:1018700014968D919C911597E80FF91F1082DF91B6
:10188000CF911F910F91FF90EF90DF90CF90BF907D
:10189000AF900895FC0124813581232B31F421E0A0
:1018A00061157105A1F0FB0108C0FC0180819181E7
:1018B0006115710531F421E0FC018081882339F044
:1018C00005C00E94711E21E0892B09F020E0822FC3
:1018D00008950F931F93CF93DF93EC018881998133
:1018E000009729F02A813B812617370788F48B015E
:1018F0006F5F7F4F0E94991D009761F099838883E5
:101900001B830A832C813D81232B11F4FC0110825F
:1019100081E001C080E0DF91CF911F910F91089588
:10192000EF92FF920F931F93CF93DF93FC012481DB
:1019300035816115710511F480E019C0411551051B
:10194000A9F07B01EC018A01020F131FB8010E946C
:10195000690C882389F3288139818C819D81B701A5
:10196000820F931F0E947A1E1D830C8381E0DF91FA
:10197000CF911F910F91FF90EF900895CF93DF9338
:10198000EC0188819981009711F00E94011D198254
:1019900018821D821C821B821A82DF91CF910895CA
:1019A000CF93DF93EC01FB0144815581608171810C
:1019B0000E94900C811103C0CE010E94BE0CCE018A
:1019C000DF91CF910895EF92FF920F931F93CF93E2
:1019D000DF93EC017B018A01BA010E94690C81113D
:1019E00004C0CE010E94BE0C07C01D830C83B7014A
:1019F000888199810E947A1ECE01DF91CF911F913B
:101A00000F91FF90EF900895CF93DF93EC01611554
:101A1000710559F0FB0101900020E9F73197AF0102
:101A2000461B570B0E94E30C02C00E94BE0CCE0165
:101A3000DF91CF910895EF92FF920F931F93CF9371
:101A4000DF93CDB7DEB7A1970FB6F894DEBF0FBE18
:101A5000CDBF7C01CB01BA01F70111821082138244
:101A600012821582148242E0420F8E010F5F1F4FD7
:101A70000E940916BC01C7010E94040DA1960FB671
:101A8000F894DEBF0FBECDBFDF91CF911F910F91B4
:101A9000FF90EF900895FC01808191810C94011DCD
:101AA0008F929F92AF92BF92CF92DF92EF92FF926E
:101AB000CF93DF93A091CB04882311F03A2F01C07C
:101AC00030E08091CC0490E0880F991F8C519E4F9C
:101AD000C090D104D090D204E090D304F090D4040C
:101AE00040E050E0BA01FC01C591D49128812A233D
:101AF00023130FC04A015B012FEF821A920AA20A38
:101B0000B20A4C155D056E057F0538F4B501A401D8
:101B1000EACF342F252FCB0104C030E020E080E055
:101B200090E0632F722FDF91CF91FF90EF90DF90C5
:101B3000CF90BF90AF909F908F900895DF92EF92DB
:101B4000FF920F931F93CF93DF937C018B01EA01E8
:101B50004617570720F4812F8A01C62FD82F60E33C
:101B600072E0C7010E942B058091F2049091F3046A
:101B700008171907E0F48C179D0708F4EC01E091B1
:101B8000EE04F091EF04EC0FFD1FD0801082609105
:101B9000EE047091EF04600F711FC7010E94040DE5
:101BA000E091EE04F091EF04EC0FFD1FD082C7012D
:101BB000DF91CF911F910F91FF90EF90DF900895EB
:101BC000CF93DF93BC0185E493E00E944005EC01D4
:101BD0006EE272E085E493E00E9440058C0F9D1F49
:101BE000DF91CF910895382F2091E2039091440323
:101BF000213208F049C0809122038111FCCF42E0DC
:101C000040932203309321033FEF3093200310923F
:101C10001F0320931E03A4E2B3E04EEF52E0FA014B
:101C20003E2F341B321718F43D913193F9CF1092A7
:101C3000FD022091FD02990F922B9093FD0290914D
:101C4000FC02913061F41092FC029091FD0290939D
:101C5000BB009091BC0093FDF8CF95EC01C095EED0
:101C60009093BC00909122039230E1F39091200375
:101C70009F3F79F080912003803241F080912003D2
:101C8000803331F084E005C081E003C082E001C010
:101C900083E01092E3031092E2031092230308956D
:101CA000CF93DF93FC01448155816081718185E48C
:101CB00093E00E943701EC016EE272E085E493E06C
:101CC0000E9440058C0F9D1FDF91CF910895CF9307
:101CD000DF93EC0141E050E060E172E00E94900C83
:101CE000811103C0CE010E94BE0CCE01DF91CF91C5
:101CF0000895CF92DF92EF92FF920F931F93CF93AD
:101D0000DF93CDB7DEB7C054D1400FB6F894DEBF35
:101D10000FBECDBF2FB7F8948091F8029091F902D1
:101D2000A091FA02B091FB022FBF4091CD045091D7
:101D3000CE046091CF047091D0048C019D01041BEE
:101D4000150B260B370BB901A801403D5740610523
:101D5000710518F48091D504BCC08093CD04909394
:101D6000CE04A093CF04B093D0041092C804109274
:101D7000C7041092C6041092C5041092C40461E016
:101D80008091C9040E94D6056AEF70E080E090E07F
:101D90000E94590661E08091C9040E94060660E035
:101DA0008091C9040E94D60564E170E080E090E073
:101DB0000E945906F89461E08091C9040E94D605FA
:101DC0008BE990E00197F1F762E08091C9040E94ED
:101DD000060683E290E00197F1F780E00E94500D43
:101DE000672B682B692B21F41092D50478943EC0A0
:101DF00081E00E94500D672B682B692BA9F38E019F
:101E00000F5F1F4F6E012FEBC21A2EEFD20A78011F
:101E100080E00E94500DF701608371838283938379
:101E200081E00E94500DF701648375838683978358
:101E3000F8E0EF0EF11CEC14FD0451F7789420E06B
:101E400030E0F8014081518162817381C480D58086
:101E5000E680F780411551056105710529F0C1142F
:101E6000D104E104F10421F41092D50480E031C0E2
:101E7000F90183E0F595E7958A95E1F7EC53FB4F7F
:101E80008081880F4C155D056E057F0508F4816023
:101E900080832F5F3F4F085F1F4F2832310589F63F
:101EA0002091C80430E04091C4048091C50490E0C2
:101EB000840F911D4091C604840F911D4091C70469
:101EC000840F911D99272817390771F681E08093B7
:101ED000D504C05CDE4F0FB6F894DEBF0FBECDBF99
:101EE000DF91CF911F910F91FF90EF90DF90CF90F6
:101EF00008950F931F9360E08091FB040E94D60524
:101F000083E090E00197F1F761E08091FB040E948B
:101F1000D60583E290E00197F1F760E08091FB0441
:101F20000E94D6058091FD049091FE049927FC0142
:101F3000EE5FFD4F6491FC01E251FE4FE491F0E051
:101F4000EE0FFF1FEC51FE4F859194910091FF041D
:101F50001091000520910105309102053F70462F38
:101F60000E94E80F611571058105910539F0DC01CA
:101F7000CB010196A11DB11DBF7003C080E090E0B0
:101F8000DC018093030590930405A0930505B093AD
:101F90000605892B8A2B8B2B81F48091FF0490916D
:101FA0000005A0910105B09102058093030590936F
:101FB0000405A0930505B093060560910305709193
:101FC000040580910505909106051F910F910895D4
:101FD000CF92DF92EF92FF920F931F93E82FF92F8A
:101FE00005C0015011092109310961F19081962341
:101FF0009417B9F305C0015011092109310911F1F4
:10200000908196239413F7CFC12CD12CE12CF12C85
:102010000AC08FEFC81AD80AE80AF80A0C151D057D
:102020002E053F0579F080818623841791F36C2D6E
:102030007D2D8E2D9F2D1F910F91FF90EF90DF90A2
:10204000CF90089560E070E080E090E01F910F91E4
:10205000FF90EF90DF90CF90089586ED94E00E947E
:102060004B0D8CED94E00E944B0D82EE94E00E94AB
:102070004B0D88EE94E00E944B0D8EEE94E00E9492
:102080004B0D84EF94E00C944B0DCF93DF93CDB7C1
:10209000DEB7A4970FB6F894DEBF0FBECDBF78941D
:1020A00084B5826084BD84B5816084BD85B582605D
:1020B00085BD85B5816085BD80916E00816080930E
:1020C0006E00109281008091810082608093810077
:1020D0008091810081608093810080918000816087
:1020E000809380008091B10084608093B1008091E2
:1020F000B00081608093B00080917A00846080930A
:102100007A0080917A00826080937A0080917A00D0
:10211000816080937A0080917A00806880937A0051
:102120001092C1001092E5031092E4031092E303B1
:102130001092E2030E9488091092140580911905FB
:10214000823018F098E0909314058093170562E3AD
:1021500070E080E090E00E94590660911A058FE0DF
:1021600095E00E94DD0668EE73E080E090E00E945A
:10217000590660E38FE095E00E94F1060BE416E457
:10218000C8010197F1F760E38FE095E00E94F10646
:10219000C8010197F1F760E38FE095E00E94F10636
:1021A00083E592E00197F1F760E28FE095E00E940D
:1021B000F10660911405606240E08FE095E00E94B6
:1021C0000A0784E08093150540E06CE08FE095E01D
:1021D0000E940A0740E061E08FE095E00E940A0754
:1021E0000BE31FE1C8010197F1F752E0F52EF092E1
:1021F000160540E066E08FE095E00E940A0740E0A7
:1022000062E08FE095E00E940A07C8010197F1F7AC
:1022100088E080931A0560E08FE095E00E94DD067B
:1022200068E571E08FE095E00E94400561E08AE09A
:102230000E94060660E08BE00E940606E0915503CE
:10224000F0915603F082E0915103F0915203108215
:10225000E0915303F09154038FEC808310925D035F
:10226000E0915903F0915A0386E08083E09157038F
:10227000F0915803808180618083E0915703F09151
:102280005803808188608083E0915703F091580360
:10229000808180688083E0915703F09158038081AA
:1022A0008F7D80838EE591E00E94E00D60E089E003
:1022B0000E94060661E088E00E94060660E088E071
:1022C0000E94D60561E083E00E94060661E084E09A
:1022D0000E94060661E082E00E94060685E693E021
:1022E0009093E4028093E3028091DF029091E002F8
:1022F000A091E102B091E2028093DB029093DC02B4
:10230000A093DD02B093DE020E94A6090E94A609F6
:102310008091E5029091E602029719F084E691E03F
:1023200002C080E891E00E94E00D62E08091C90463
:102330000E94060680E398EFAFEFBFEF8093CD04D5
:102340009093CE04A093CF04B093D0044AE3442EDC
:10235000512C612C712C8E01075E1F4FFF24F394CA
:1023600085E493E00E9493011816190654F561E084
:1023700070E080E090E00E94590685E493E00E94BE
:1023800071018093EF02803419F4F092EE02E8CFED
:10239000853221F481E08093EE0213C09091EE0229
:1023A00089831A8241E050E0BE016F5F7F4F911137
:1023B00003C08EEE94E002C088EE94E00E94900C80
:1023C000CFCF8EEE94E00E94EB0B88EE94E00E945B
:1023D000EB0B60E372E08EEE94E00E944A0C8823DF
:1023E00041F060E372E088EE94E00E944A0C8111B3
:1023F00055C069EE71E08EEE94E00E944A0C88238D
:1024000099F08091E8049091E904009709F4EAC2F8
:102410000E94291621E0672B682B692B09F020E028
:10242000622F88E00E94D6054091F2045091F30497
:102430004150510960E070E0CE0107960E949E0D68
:102440006CE971E0CE0107960E94040DFC018081C9
:102450009181892B09F0CAC26BEA71E08EEE94E09B
:102460000E944A0C882341F06091F4027091F502B9
:1024700081E090E00E944F0B66EB71E08EEE94E0FD
:102480000E94040D66EB71E088EE94E00E94040D5A
:102490001092EE02CE0107960E944B0D61E070E0B3
:1024A00080E090E00E9459068091F6029091F70238
:1024B000892BE9F40E94790F60910305709104055E
:1024C0008091050590910605A30192010E942B1CA5
:1024D00020930705309308054093090550930A059A
:1024E000CA01B9010E941B196B017C0106C0C12CF5
:1024F000D12C30EFE32E32E4F32E89E00E94AD05BB
:10250000019751F020E030E040EA51E4C701B60104
:102510000E94141987FF55C062E370E080E090E0EC
:102520000E945906AA24A394B12C8091F4029091A0
:10253000F502892B11F0A12CB12CB092F502A092DA
:10254000F402B50181E090E00E944F0B4AE0B50132
:10255000CE0101960E94E50465EF71E0CE01079679
:102560000E942B05BE016F5F7F4FCE0107960E9430
:10257000D00C0E94670E0E94500ECE0107960E945A
:102580004B0DCE0101960E944B0D89E00E94AD05D6
:10259000019709F457C220E030E040EA51E4C70156
:1025A000B6010E94141987FD4DC268E270E080E018
:1025B00090E00E94590680ED97E09093F702809397
:1025C000F6028091F6029091F702009729F00197A8
:1025D0009093F7028093F6028091F2029091F302B9
:1025E0008838934109F0F2C11092F3021092F2027E
:1025F00080E10E9442069C01990F440B550B60E05C
:1026000070E48CE990E00E942B1CCA01B901605172
:102610007742810991090E941B190E94731B6B016B
:102620007C0129E537E44CEB53E30E947A19A701BA
:1026300096010E947A1923E73FE745E759E30E9494
:102640008D1AA70196010E947A192BEE3FEF43E9FC
:102650005AE30E948D1A9B01AC0160E070E080E8B3
:102660009FE30E94F91A23E333E948E853E40E9408
:102670008C1AAB01BC0121E0CE0101960E941B0D1A
:1026800068EB71E0CE0107960E942B05BE016F5FDB
:102690007F4FCE0107960E94D00C0E94670E0E94C9
:1026A000500ECE0107960E944B0DCE0101960E945E
:1026B0004B0D81E10E944206BC01990F880B990BDA
:1026C0000E941B19AB01BC0121E0CE0101960E94C2
:1026D0001B0D69EC71E0CE0107960E942B05BE012F
:1026E0006F5F7F4FCE0107960E94D00C0E94670E4D
:1026F0000E94500ECE0107960E944B0DCE0101960E
:102700000E944B0D60E372E0C8010E942B050E94FD
:10271000A6090E945C0A6091E70270E0CE01019672
:102720000E949D0B0E94A6090E945C0A6091E8022B
:1027300070E0CE0107960E949D0B0E94A6090E94A0
:102740005C0A6091E90270E04AE0CE0143960E9483
:10275000E504BE016D5E7F4FCE010D960E9411050E
:10276000BE01695F7F4FCE010D960E94D00CBE0165
:102770006F5F7F4F0E94D00C8017910779F0FC01AA
:10278000608171816115710531F044815581C80105
:102790000E94E30C03C0C8010E94BE0CB801CE0128
:1027A0004F960E941105CE010D960E944B0DCE0151
:1027B00043960E944B0DCE0107960E944B0DCE0111
:1027C00001960E944B0DC8010E944B0D6AED71E00D
:1027D000CE0101960E942B05BE01615E7F4FCE01A6
:1027E00001960E94D00C0E94670E0E94500ECE01EE
:1027F00001960E944B0DCE014F960E944B0D88E032
:102800000E94AD0521E030E0892B11F020E030E09E
:102810003093F1022093F0020E94790E8823A9F1EF
:102820008091CA048B3039F180F18551823068F58E
:102830006091C40470E080E090E00E94191920E0EB
:1028400030E040E853E40E947A196B017C0160910A
:10285000C50470E080E090E00E941B199B01AC0170
:10286000C701B6010E948D1A2DEC3CEC4CEC5DE3E7
:102870000E947A1907C06091C40470E080E090E083
:102880000E9419194B015C0106C0812C912C20EC8F
:10289000A22E2FE7B22E0E94790E882309F4F5C0EC
:1028A0008091CA048B3029F0D8F18551823058F0DC
:1028B00037C06091C60470E080E090E00E94191972
:1028C0006B017C0133C03090C604632D6F7770E0DC
:1028D00080E090E00E941B1920E030E040E853E4E3
:1028E0000E947A196B017C016091C70470E080E05E
:1028F00090E00E941B199B01AC01C701B6010E9428
:102900008D1A2DEC3CEC4CEC5DE30E947A196B01C6
:102910007C0137FE0BC0F7FAF094F7F8F09406C08C
:10292000C12CD12C90ECE92E9FE7F92EA501940142
:10293000C501B4010E94BB1B8111A7C0A70196016C
:10294000C701B6010E94BB1B81119FC022E0B701E5
:10295000A601CE0101960E941B0D62E172E0CE013C
:1029600007960E942B05BE016F5F7F4FCE01079631
:102970000E94D00C0E94670E0E94500ECE01079656
:102980000E944B0DCE0101960E944B0D22E0B50135
:10299000A401CE0101960E941B0D60E272E0CE01FF
:1029A00007960E942B05BE016F5F7F4FCE010796F1
:1029B0000E94D00C0E94670E0E94500ECE01079616
:1029C0000E944B0DCE0101960E944B0D8091F202A8
:1029D0009091F30201969093F3028093F2020E9489
:1029E0003302BCCC60E070E0CB0114CD4091F20426
:1029F0005091F304BA0161507109CE0101960E9411
:102A00009E0D8091E8049091E9040097B9F00E942E
:102A100029167B0189819A81009729F00E94291645
:102A2000DC01CB0103C080E090E0DC01B7010E9433
:102A30004F0BCE0101960E944B0D0ECD60E070E071
:102A4000CB01E7CF0E94790F6091030570910405D7
:102A50008091050590910605A30192010E942B1C0F
:102A600020930705309308054093090550930A0504
:102A7000CA01B9010E941B196B017C0165E070E07D
:102A800080E090E00E94590680CD81E092E00E94B3
:102A9000E00DA5CFCF92DF92EF92FF92E5E4F3E055
:102AA0001382128288EEC82E83E0D82EE12CF12CFE
:102AB000C482D582E682F7828CE191E091838083A3
:102AC00085EC90E09587848784EC90E097878687F3
:102AD00080EC90E0918B808B81EC90E0938B828BEB
:102AE00082EC90E0958B848B86EC90E0978B868BC4
:102AF000118E128E138E148E1092E5031092E40341
:102B00001092E3031092E2030E948809E6EEF3E0DC
:102B100013821282C482D582E682F7828EE291E02D
:102B200091838083EFE0F5E01382128280E491E0EC
:102B30009183808381E2848380E1818782E0828740
:102B4000138661E08AE00E94060660E08BE00E9446
:102B50000606EBEFF4E08AE090E0918380838BE05F
:102B600090E09383828388EB9BE0A0E0B0E08483D5
:102B70009583A683B783E2EFF3E087E08183138236
:102B800060E372E084EF94E00E942B0566EB71E055
:102B90008EEE94E00E942B0566EB71E088EE94E0E7
:102BA0000E942B0560E372E082EE94E00E942B0508
:102BB00060E372E08CED94E00E942B0560E372E02C
:102BC00086ED94E00E942B05A4ECB4E086E0159617
:102BD0008C9315978BE016968C931697E8E0F2E0AD
:102BE000E4911796EC931797E4EFF1E0E4911896CF
:102BF000EC93189740E85EE360E070E01D964D931B
:102C00005D936D937C935097FF90EF90DF90CF9002
:102C10000895EF920F931F93CF93DF93E80147FD41
:102C200002C034E001C034E1E42F440FFF0BF7FF92
:102C300003C0F195E195F109E32E022F2E2FAE018D
:102C40000E949516CE01DF91CF911F910F91EF90C9
:102C500008951F93FC0199278827BC01E8941191DE
:102C60001032E9F3193010F01E30C8F31B3251F066
:102C70001D3249F4689406C00E946616610F711DEA
:102C8000811D911D119110531A30B0F33EF49095AF
:102C90008095709561957F4F8F4F9F4F1F9108953D
:102CA0004532510520F4423010F00C945B16FB01C4
:102CB0001082CB010895BB274A3031F4992322F4C6
:102CC000BDE2909581959F4F0C947C16592F482F0B
:102CD000372F262F660F771F881F991F660F771FC4
:102CE000881F991F620F731F841F951F660F771F20
:102CF000881F991F0895BB27FB015527AA27880F16
:102D0000991FAA1FA41710F0A41B83955051B9F75F
:102D1000A05DAA3308F0A95DA193009779F7B111DE
:102D2000B1931192CB010C9404194F925F926F9260
:102D30007F929F92AF92BF92CF92DF92EF92FF92DB
:102D40000F931F93CF93DF93CDB7DEB729970FB6BD
:102D5000F894DEBF0FBECDBF6A01122FB02E2BE359
:102D6000201720F0FF24F394F00E02C0BCE3FB2EEA
:102D70000F2D27E0AE014F5F5F4F0E942318AC017B
:102D80008981982F9970913031F0E1FC06C0E0FE06
:102D900006C090E205C09DE203C09BE201C090E046
:102DA000EE2DE07183FF3CC0911102C083E001C0B1
:102DB00084E0811718F4212F281B01C020E0E111C5
:102DC0000BC0F601822F30E2882319F03193815035
:102DD000FBCFC20ED11C20E0992329F0D6019C9391
:102DE000F60131966F01C6010396E2FE0AC03EE489
:102DF000D6013C9341E411964C93119712963C9363
:102E000006C03EE6F601308341E641833283FC0191
:102E1000322F40E2332309F442C041933150FACFBC
:102E200082FF44C0911102C083E001C084E0811799
:102E300018F4212F281B01C020E0E1110BC0F6017E
:102E4000822F30E2882319F031938150FBCFC20EDC
:102E5000D11C20E0992329F0D6019C93F6013196EC
:102E60006F01C6010396E2FE0BC039E4D6013C9324
:102E70003EE411963C93119736E412963C9307C0BA
:102E800039E6F60130833EE6318336E63283FC01D3
:102E9000322F40E2332319F041933150FBCFFC0134
:102EA000E20FF11D10828EEF9FEFB7C0F1E091119C
:102EB00001C0F0E06F2F70E01416150624F49A019B
:102EC0002F5F3F4F02C021E030E0260F371FBB20AD
:102ED00029F06B2D70E06F5F7F4F02C060E070E003
:102EE000260F371F612F70E0261737071CF4121BBF
:102EF000212F01C020E03E2D387159F4D601322F28
:102F000060E2332319F06D933150FBCFC20ED11C18
:102F100020E0FF2331F0D6019C93B6016F5F7F4F15
:102F20006B01E1110BC0F601922F30E3992319F0E8
:102F300031939150FBCFC20ED11C20E09F2D940FF6
:102F40003A81782F7071A72E84FF03C0313309F4C2
:102F50009150191624F4993018F098E001C091E0CE
:102F6000E42F852F57FF02C0E0E080E06E2F782F1E
:102F7000E0E0F0E0AEE29A2E3A01691A71082A0107
:102F8000461A570A0B2D10E01195019511096F3F54
:102F90008FEF780729F4D6019C92C60101966C0147
:102FA0004617570784F0661677066CF47F01E40C29
:102FB000F51CA1E0B0E0AC0FBD1FEA0EFB1ED7016F
:102FC0001196BC9002C090E3B92E61507109319600
:102FD000C60101967C016017710724F0D601BC92EE
:102FE0006C01D5CF6417750741F4363320F43533BF
:102FF00021F4A11002C081E3B82EF601B082F701DE
:10300000822F90E2882319F091938150FBCFF70132
:10301000E20FF11D108280E090E029960FB6F8943F
:10302000DEBF0FBECDBFDF91CF911F910F91FF90FB
:10303000EF90DF90CF90BF90AF909F907F906F9078
:103040005F904F900895283008F027E03327DA0189
:10305000990F311D87FD916000966105710539F466
:1030600032602E5F3D9330E32A95E1F708959F3F4C
:1030700030F080387105610509F03C5F3C5F3D939D
:10308000913008F08068911DDF93CF931F930F93C9
:10309000FF92EF92192F987F9695E92F9695969526
:1030A000E90FFF27E45EFE4F99273327EE24FF2424
:1030B000A701E70105900894079428F4360FE71E4E
:1030C000F81E491F511D660F771F881F991F069410
:1030D000A1F70590079428F4E70EF81E491F561F24
:1030E000C11D770F881F991F661F0694A1F70590D1
:1030F000079428F4F80E491F561FC71FD11D880FCB
:10310000991F661F771F0694A1F70590079420F476
:10311000490F561FC71FD81F990F661F771F881F9B
:103120000694A9F784911095177041F0D695C7952C
:1031300057954795F794E7941A95C1F7E2ECF0E0BC
:1031400068941590159135916591959105907FE260
:103150007395E118F10A430B560BC90BD009C0F760
:10316000E10CF11E431F561FC91FD01D7EF47033A2
:1031700011F48A95E6CFE894015030F0080F0AF474
:103180000027021708F4202F2395022F7A3328F006
:1031900079E37D932A95E9F710C07D932A9589F606
:1031A000069497956795379517951794E118F10A46
:1031B000430B560BC90BD00998F023957E9173955C
:1031C0007A3308F070E37C932013B8F77E91706136
:1031D0007D9330F0839571E37D9370E32A95E1F759
:1031E0001124EF90FF900F911F91CF91DF919927BC
:1031F00087FD9095089591110C94E719803219F08C
:1032000089508550C8F70895DC01FC01672F719142
:103210007723E1F7329704C07C916D9370836291BC
:10322000AE17BF07C8F308950E94561908F481E04D
:103230000895E89409C097FB3EF4909580957095A9
:1032400061957F4F8F4F9F4F9923A9F0F92F96E9F2
:10325000BB279395F695879577956795B795F11167
:10326000F8CFFAF4BB0F11F460FF1BC06F5F7F4F04
:103270008F4F9F4F16C0882311F096E911C0772316
:1032800021F09EE8872F762F05C0662371F096E81F
:10329000862F70E060E02AF09A95660F771F881FEE
:1032A000DAF7880F9695879597F90895990F000892
:1032B000550FAA0BE0E8FEEF16161706E807F90708
:1032C000C0F012161306E407F50798F0621B730BA3
:1032D000840B950B39F40A2661F0232B242B252B24
:1032E00021F408950A2609F4A140A6958FEF811DC7
:1032F000811D08950E948D190C94011A0E94F319E2
:1033000038F00E94FA1920F0952311F00C94EA1974
:103310000C94F01911240C94351A0E94121A70F3AF
:10332000959FC1F3950F50E0551F629FF001729F6A
:10333000BB27F00DB11D639FAA27F00DB11DAA1F79
:10334000649F6627B00DA11D661F829F2227B00DC6
:10335000A11D621F739FB00DA11D621F839FA00D51
:10336000611D221F749F3327A00D611D231F849FA1
:10337000600D211D822F762F6A2F11249F575040F8
:103380009AF0F1F088234AF0EE0FFF1FBB1F661F73
:10339000771F881F91505040A9F79E3F510580F03C
:1033A0000C94EA190C94351A5F3FE4F3983ED4F379
:1033B000869577956795B795F795E7959F5FC1F7E0
:1033C000FE2B880F911D9695879597F9089599275B
:1033D0008827089597F99F6780E870E060E0089576
:1033E0009FEF80EC089500240A941616170618061D
:1033F0000906089500240A941216130614060506F9
:103400000895092E0394000C11F4882352F0BB0F89
:1034100040F4BF2B11F460FF04C06F5F7F4F8F4FEC
:103420009F4F089557FD9058440F551F59F05F3F27
:1034300071F04795880F97FB991F61F09F3F79F0D6
:1034400087950895121613061406551FF2CF469558
:10345000F1DF08C0161617061806991FF1CF8695DA
:103460007105610508940895E894BB2766277727BE
:10347000CB0197F908950E947D1AA59F900DB49FE6
:10348000900DA49F800D911D112408952F923F92BD
:103490004F925F926F927F928F929F92AF92BF9264
:1034A000CF92DF92EF92FF920F931F93CF93DF9310
:1034B000CDB7DEB7CA1BDB0B0FB6F894DEBF0FBE6D
:1034C000CDBF09942A88398848885F846E847D84BA
:1034D0008C849B84AA84B984C884DF80EE80FD80BC
:1034E0000C811B81AA81B981CE0FD11D0FB6F89432
:1034F000DEBF0FBECDBFED010895A29FB001B39F07
:10350000C001A39F700D811D1124911DB29F700DEC
:10351000811D1124911D08955058BB27AA270E9490
:10352000A41A0C94011A0E94F31938F00E94FA1997
:1035300020F039F49F3F19F426F40C94F0190EF49E
:10354000E095E7FB0C94EA19E92F0E94121A58F350
:10355000BA17620773078407950720F079F4A6F578
:103560000C94341A0EF4E0950B2EBA2FA02D0B01FB
:10357000B90190010C01CA01A0011124FF27591BB8
:1035800099F0593F50F4503E68F11A16F040A22FBE
:10359000232F342F4427585FF3CF4695379527952F
:1035A000A795F0405395C9F77EF41F16BA0B620B2E
:1035B000730B840BBAF09150A1F0FF0FBB1F661F75
:1035C000771F881FC2F70EC0BA0F621F731F841FB8
:1035D00048F4879577956795B795F7959E3F08F0DE
:1035E000B0CF9395880F08F09927EE0F97958795A0
:1035F00008950E940D1B0C94011A0E94FA1958F0AC
:103600000E94F31940F029F45F3F29F00C94EA1965
:1036100051110C94351A0C94F0190E94121A68F387
:103620009923B1F3552391F3951B550BBB27AA277B
:1036300062177307840738F09F5F5F4F220F331FB5
:10364000441FAA1FA9F335D00E2E3AF0E0E832D07D
:1036500091505040E695001CCAF72BD0FE2F29D080
:10366000660F771F881FBB1F261737074807AB0752
:10367000B0E809F0BB0B802DBF01FF2793585F4FC7
:103680003AF09E3F510578F00C94EA190C94351AE3
:103690005F3FE4F3983ED4F3869577956795B795A9
:1036A000F7959F5FC9F7880F911D9695879597F9B4
:1036B0000895E1E0660F771F881FBB1F621773072D
:1036C0008407BA0720F0621B730B840BBA0BEE1F42
:1036D00088F7E095089516F00C94C01B0C94F0192F
:1036E00068940C94EA190E941A1AA8F39923C1F35A
:1036F000AEF3DF93CF931F930F93FF92C92FDD2774
:1037000088232AF02197660F771F881FDAF720E0B9
:1037100030E040E85FEB9FE3883920F0803E38F0EE
:1037200021968F770E948D1AE8E6F0E004C00E948F
:103730008D1AE5E9F0E00E94CE1B8B01BE01EC0181
:10374000FB2E6F5771097595771F880B990B0E9497
:103750001B1928E132E741E35FE30E948D19AF2D89
:103760009801AE01FF900F911F91CF91DF910E94C0
:10377000A41A0C94011A0E945619880B990B0895EB
:103780009F3F31F0915020F4879577956795B795D5
:10379000880F911D9695879597F90895DF93CF939C
:1037A0001F930F93FF92EF92DF927B018C0168943D
:1037B00006C0DA2EEF010E948D19FE01E894A59152
:1037C0002591359145915591A6F3EF010E94A41AD8
:1037D000FE019701A801DA9469F7DF90EF90FF905E
:1037E0000F911F91CF91DF91089597FB072E16F44B
:1037F000009407D077FD09D00E94521C07FC05D029
:103800003EF4909581959F4F0895709561957F4FF7
:103810000895A1E21A2EAA1BBB1BFD010DC0AA1F11
:10382000BB1FEE1FFF1FA217B307E407F50720F029
:10383000A21BB30BE40BF50B661F771F881F991FA4
:103840001A9469F760957095809590959B01AC01ED
:10385000BD01CF010895052E97FB1EF400940E9430
:10386000421C57FD07D00E94091C07FC03D04EF4F0
:103870000C94421C50954095309521953F4F4F4FE9
:103880005F4F089590958095709561957F4F8F4F0C
:103890009F4F0895B7FF0C943B1A0E943B1A821B5E
:1038A000930B0895AA1BBB1B51E107C0AA1FBB1FA6
:1038B000A617B70710F0A61BB70B881F991F5A95BC
:1038C000A9F780959095BC01CD010895EE0FFF1FDB
:1038D0000590F491E02D0994CF93DF938230910508
:1038E00010F482E090E0E0911D05F0911E0520E0CB
:1038F00030E0C0E0D0E0309711F1408151814817AD
:103900005907C0F04817590761F4828193812097C5
:1039100019F09B838A832BC090931E0580931D050D
:1039200026C02115310519F04217530718F49A01E2
:10393000BE01DF01EF010280F381E02DDCCF211514
:10394000310509F1281B390B2430310590F412960A
:103950008D919C9113976115710521F0FB01938363
:10396000828304C090931E0580931D05FD0132964D
:1039700044C0FD01E20FF31F81939193225031095E
:103980002D933C933AC020911B0530911C05232BAD
:1039900041F4209102013091030130931C052093E2
:1039A0001B0520910001309101012115310541F4E1
:1039B0002DB73EB74091040150910501241B350BF2
:1039C000E0911B05F0911C05E217F307A0F42E1BF4
:1039D0003F0B2817390778F0AC014E5F5F4F241773
:1039E000350748F04E0F5F1F50931C0540931B0591
:1039F0008193919302C0E0E0F0E0CF01DF91CF919D
:103A000008950F931F93CF93DF93009709F48CC011
:103A1000FC0132971382128200911D0510911E0540
:103A20000115110581F420813181820F931F2091AE
:103A30001B0530911C052817390779F5F0931C05F3
:103A4000E0931B0571C0D80140E050E0AE17BF07FE
:103A500050F412962D913C911397AD01211531052B
:103A600009F1D901F3CF9D01DA013383228360810B
:103A70007181860F971F8217930769F4EC012881E3
:103A80003981260F371F2E5F3F4F318320838A8174
:103A90009B8193838283452B29F4F0931E05E09349
:103AA0001D0542C01396FC93EE931297ED014991C8
:103AB00059919E01240F351FE217F30771F480819D
:103AC0009181840F951F029611969C938E9382810B
:103AD000938113969C938E931297E0E0F0E0D801C7
:103AE00012968D919C911397009719F0F8018C0113
:103AF000F6CF8D919C9198012E5F3F4F820F931FBF
:103B000020911B0530911C052817390769F430975F
:103B100029F410921E0510921D0502C01382128214
:103B200010931C0500931B05DF91CF911F910F91FE
:103B30000895A0E0B0E0EFE9FDE10C944A1AEC0131
:103B4000009721F4CB010E946C1CB8C0FC01E60F69
:103B5000F71F9C0122503109E217F30708F4ACC0AB
:103B6000D9010D911C91119706171707B0F0053078
:103B7000110508F49FC0C80104978617970708F439
:103B800099C002501109061B170B019311936D93F5
:103B90007C93CF010E94011D8DC05B01A01AB10A68
:103BA0004C01800E911EA0911D05B0911E0540E0B4
:103BB00050E0E12CF12C109709F44AC0A815B90582
:103BC000D1F56D907C901197630182E0C80ED11CF5
:103BD000CA14DB0480F1A3014A195B096A0182E07F
:103BE000C80ED11C1296BC9012971396AC91B5E0FA
:103BF000CB16D10440F0B282A38351834083D90114
:103C00006D937C930AC00E5F1F4FC301800F911FFD
:103C1000F90191838083EB2DFA2FE114F10431F047
:103C2000D7011396FC93EE93129744C0F0931E05B0
:103C3000E0931D053FC08D919C911197481759073E
:103C400008F4AC017D0112960D90BC91A02DB3CF6C
:103C500080911B0590911C0588159905E1F4461784
:103C60005707C8F48091000190910101009741F439
:103C70008DB79EB74091040150910501841B950BAF
:103C8000E817F907C8F4F0931C05E0931B05F90148
:103C9000718360830FC0CB010E946C1C7C01009774
:103CA00059F0A801BE010E94681ECE010E94011DAC
:103CB000C70104C0CE0102C080E090E0CDB7DEB7FE
:103CC000EEE00C94661A81E090E0F8940C94811E6A
:103CD000FB01DC0102C001900D9241505040D8F729
:103CE0000895FB01DC018D91019080190110D9F339
:103CF000990B0895FB01DC0101900D920020E1F782
:103D0000089511E0CCE0D1E004C0FE010E94661CE1
:0C3D10002196CD30D107C9F7F894FFCF01
:103D1C0000001F0580001F1C1F1E1F1E1F1F1E1FC3
:103D2C001E1F6B006C006D0000000000CA01370103
:103D3C006201110293017101850100000000310341
:103D4C0001036103DD02A302ED02DE0200000000AC
:103D5C002B0737016103600300000000E90B3701FA
:103D6C00610360033A003000505553483F005374D0
:103D7C0061727400556E61626C6520746F2073798A
:103D8C006E63207769746820746865205254430010
:103D9C0052544320686173207365742074686520E5
:103DAC0073797374656D2074696D65002F68616C2F
:103DBC006C2F7368696674526567002F68616C6C50
:103DCC002F6C616D700020002F68616C6C2F736517
:103DDC006E73546865726D40002F68616C6C2F7344
:103DEC00656E734C6967687440002F68616C6C2F4A
:103DFC0074696D6545737040002F68616C6C2F6C35
:103E0C0069676874002F68616C6C2F6C616D704011
:103E1C00002F68616C6C2F6468743131406F66667A
:103E2C0025002F68616C6C2F64687431317440000C
:103E3C002F68616C6C2F64687431316840000D0A16
:023E4C00000074
:00000001FF
