:100000000C9462000C948A000C948A000C94B8063C
:100010000C9493060C946E060C948A000C948A003F
:100020000C948A000C948A000C948A000C948A0028
:100030000C948A000C948A000C948A000C948A0018
:100040000C94F6040C948A000C94C4040C949E0442
:100050000C948A000C948A000C948A000C948A00F8
:100060000C9440050C948A00000000002300260038
:10007000290000000008000201000003040700003E
:1000800000000000000000000000250028002B00F8
:1000900000000000240027002A00040404040404D3
:1000A0000404020202020202030303030303010227
:1000B00004081020408001020408102001020408F6
:1000C0001020DD0611241FBECFEFD8E0DEBFCDBF6C
:1000D00011E0A0E0B1E0E2E5F2E102C005900D928E
:1000E000A236B107D9F723E0A2E6B1E001C01D9224
:1000F000A732B207E1F710E0C2E6D0E004C02197D2
:10010000FE010E941C09C136D107C9F70E944607AB
:100110000C9427090C94000090E0FC01E255FF4F7D
:100120002491FC01E656FF4F8491882399F090E0DA
:10013000880F991FFC01E057FF4FA591B491FC0176
:10014000EA57FF4F859194918FB7F894EC91E22B89
:10015000EC938FBF0895382F209152029091510255
:10016000213208F049C080912E028111FCCF42E07B
:1001700040932E0230932D023FEF30932C021092C9
:100180002B0220932A02A1E3B2E04AE052E0FA01F6
:100190003E2F341B321718F43D913193F9CF109252
:1001A000090220910902990F922B909309029091D4
:1001B0000802913061F41092080290910902909324
:1001C000BB009091BC0093FDF8CF95EC01C095EE7B
:1001D0009093BC0090912E029230E1F390912C020A
:1001E0009F3F79F080912C02803241F080912C0267
:1001F000803331F084E005C081E003C082E001C0BB
:1002000083E0109230021092520210922F02089551
:100210008091E60190E02091E701821B9109089509
:10022000CF92DF92EF92FF920F931F93CF93DF93C2
:100230006C017A018B01C0E0D0E0CE15DF0589F0BA
:10024000D8016D918D01D601ED91FC910190F08165
:10025000E02DC6010995892B11F47E0102C021967B
:10026000ECCFC701DF91CF911F910F91FF90EF90DD
:10027000DF90CF900895FC01538D448D252F30E001
:10028000842F90E0821B930B541710F0CF960895A3
:1002900001970895FC01918D828D981761F0828DF0
:1002A000DF01A80FB11D5D968C91928D9F5F9F73AA
:1002B000928F90E008958FEF9FEF0895FC01918D4C
:1002C000828D981731F0828DE80FF11D858D90E0B9
:1002D00008958FEF9FEF0895FC01918D228D892F56
:1002E00090E0805C9F4F821B91098F73992708953E
:1002F00083E592E00E946C0121E0892B09F420E063
:10030000822F0895FC01848DDF01A80FB11DA35A2F
:10031000BF4F2C91848D90E001968F739927848F25
:10032000A689B7892C93A089B1898C9180648C931C
:10033000938D848D981306C00288F389E02D808107
:100340008F7D80830895EF92FF920F931F93CF9339
:10035000DF93EC0181E0888F9B8D8C8D981305C015
:10036000E889F989808185FD24C0F62E0B8D10E087
:100370000F5F1F4F0F731127E02E8C8DE8120CC0FA
:100380000FB607FCFACFE889F989808185FFF5CFA0
:10039000CE010E948201F1CF8B8DFE01E80FF11D8D
:1003A000E35AFF4FF0820B8FEA89FB8980818062DC
:1003B00007C0EE89FF896083E889F98980818064BC
:1003C000808381E090E0DF91CF911F910F91FF90AA
:1003D000EF900895CF93DF93EC01888D8823C9F0C7
:1003E000EA89FB89808185FD05C0A889B9898C913E
:1003F00086FD0FC00FB607FCF5CF808185FFF2CFD9
:10040000A889B9898C9185FFEDCFCE010E94820128
:10041000E7CFDF91CF91089580E090E0892B29F01C
:100420000E94780181110C940000089590E0FC0175
:10043000EE58FF4F3491FC01E255FF4F2491FC012F
:10044000E656FF4FE491EE2309F43BC0332339F124
:10045000333091F038F43130A9F0323001F584B501
:100460008F7D12C0373091F03830A1F03430B9F4BC
:10047000809180008F7D03C0809180008F77809372
:1004800080000DC084B58F7784BD09C08091B00015
:100490008F7703C08091B0008F7D8093B000F0E033
:1004A000EE0FFF1FEA57FF4FA591B4918FB7F89455
:1004B000EC91611103C020952E2301C02E2B2C93AB
:1004C0008FBF08953FB7F8948091E1019091E201C8
:1004D000A091E301B091E40126B5A89B05C02F3F90
:1004E00019F00196A11DB11D3FBFBA2FA92F982F5A
:1004F0008827820F911DA11DB11DBC01CD0142E0D5
:10050000660F771F881F991F4A95D1F708958F921C
:100510009F92AF92BF92CF92DF92EF92FF926B01C8
:100520007C010E9462024B015C01C114D104E10410
:10053000F104F1F00E946202DC01CB0188199909F3
:10054000AA09BB09883E9340A105B10570F321E0DB
:10055000C21AD108E108F10888EE880E83E0981EDF
:10056000A11CB11CC114D104E104F10419F7DDCFC1
:10057000FF90EF90DF90CF90BF90AF909F908F90C3
:10058000089585ED8093BC008091BC0084FDFCCF74
:1005900010922E0208954091B701262F30E0240FCB
:1005A000311D21323105DCF420912E022430C9F4B2
:1005B000FC0180E090E0861758F43091B70121915A
:1005C000DC01AB56BE4FA30FB11D2C930196F3CFA8
:1005D0008091B701680F6093B70180E0089581E0D2
:1005E000089582E0089510922E0281E080932D02FA
:1005F0001092080261E082E10E94160261E083E14C
:100600000E941602E9EBF0E080818E7F808380817A
:100610008D7F808388E48093B80085E48093BC005C
:1006200008950895E091E7018091E601E81730F41C
:10063000F0E0E851FE4F808190E008958FEF9FEF4A
:1006400008959091E7018091E601981750F4E92F01
:10065000F0E0E851FE4F208130E09F5F9093E7018A
:1006600002C02FEF3FEFC9010895CF92DF92EF92C2
:10067000FF920F931F93CF93DF937C01262F972F29
:100680008A0180912F02882391F0C62FD72F6E0107
:10069000C40ED51ECC15DD0571F06991D701ED9121
:1006A000FC910190F081E02DC7010995F3CF642FF3
:1006B000822F0E94CB02C801DF91CF911F910F9131
:1006C000FF90EF90DF90CF900895CF93DF931F922C
:1006D000CDB7DEB7698320912F022223D1F020917C
:1006E0005202203240F021E030E0FC0133832283CB
:1006F00080E090E015C080913002E82FF0E0EF5CE0
:10070000FD4F998190838F5F8093300280935202D6
:1007100005C061E0CE0101960E94CB0281E090E02D
:100720000F90DF91CF910895ECEFF2E0918162811B
:100730008081238131E030932F0220935102109267
:1007400030021092520260956923682B80EF92E08C
:100750000E94650381E00C94AB00FC01248131E030
:1007600030932F02209351021092300210925202C5
:100770008385682B80EF92E00E94650381E00C94F2
:10078000AB000F931F93CF938C01C62F0E94AD0334
:100790006C2F6460C8010E94AD036C2F6B7FC80191
:1007A0000E94AD0383EC90E00197F1F7CF911F9188
:1007B0000F910895FF920F931F93CF93DF931F9292
:1007C000CDB7DEB78C01F62E962F907F692F642B64
:1007D000C80149830E94C10380E1F89EB001112441
:1007E0004981642BC8010F90DF91CF911F910F9128
:1007F000FF900C94C10341E00E94DA0381E090E095
:100800000895089580E090E0089590E0FC01EE0FD7
:10081000FF1FE459FF4FA591B4912C91FC01EE56B6
:10082000FE4F30812083880F991FFC01E85FFE4F47
:100830000190F081E02D808108958091FD028093E8
:1008400000038091FF0290912E029111FCCF91E064
:1008500090932E0290932D022FEF20932C02109252
:100860002B0210922A029093090290910902880F9C
:10087000892B8093090280910802813061F41092E3
:100880000802809109028093BB008091BC0083FD27
:10089000F8CF85EC01C085EE8093BC0080912E02DC
:1008A0008130E1F380912B02811103C080912B02F2
:1008B00001C081E0AAE0B2E028EE31E0F9019E2F0C
:1008C000921B981718F49D919193F9CF1092E7011C
:1008D0008093E601811101C0FFCF80EF92E00E947A
:1008E00021038093FD0208950E942209611571057C
:1008F00079F0FB0101900020E9F73197AF01461B29
:10090000570BDC01ED91FC910280F381E02D0994FD
:1009100080E090E00895CF93DF93BC0183E592E0FF
:100920000E947604EC016EE371E083E592E00E94A0
:1009300076048C0F9D1FDF91CF9108951F920F9227
:100940000FB60F9211242F933F934F935F936F93A2
:100950007F938F939F93AF93BF93EF93FF9383E521
:1009600092E00E948201FF91EF91BF91AF919F9120
:100970008F917F916F915F914F913F912F910F9048
:100980000FBE0F901F9018951F920F920FB60F92E7
:1009900011242F938F939F93EF93FF93E091630222
:1009A000F09164028081E0916902F0916A0282FD17
:1009B00012C0908180916C028F5F8F7320916D02C5
:1009C000821751F0E0916C02F0E0ED5AFD4F958FE7
:1009D00080936C0201C08081FF91EF919F918F9174
:1009E0002F910F900FBE0F901F9018951F920F928E
:1009F0000FB60F9211242F933F938F939F93AF9332
:100A0000BF938091DD019091DE01A091DF01B09153
:100A1000E0013091DC0123E0230F2D3720F4019613
:100A2000A11DB11D05C026E8230F0296A11DB11D11
:100A30002093DC018093DD019093DE01A093DF0120
:100A4000B093E0018091E1019091E201A091E30176
:100A5000B091E4010196A11DB11D8093E101909335
:100A6000E201A093E301B093E401BF91AF919F91A4
:100A70008F913F912F910F900FBE0F901F9018955F
:100A80001F920F920FB60F9211242F933F934F9303
:100A90005F936F937F938F939F93AF93BF93EF93E6
:100AA000FF938091B900887F803609F49CC068F577
:100AB000883209F45BC090F4803109F454C038F4F2
:100AC000882309F4F6C0883009F44DC0F6C0883197
:100AD00009F44CC0803209F45DC0EFC0803409F4E1
:100AE00068C048F4803309F455C0883309F0E5C084
:100AF00080932C02D8C0803509F44FC0883509F4A2
:100B00005DC0883409F0D9C0D6C0883909F4C7C09F
:100B1000A8F4883709F467C038F4883609F463C04C
:100B2000803709F460C0C9C0883809F4B8C080397A
:100B300009F45FC0803809F0C0C05BC0803B09F495
:100B400086C038F4803A09F466C0883A09F47FC058
:100B5000B4C0803C09F4A7C0883C09F4A4C0883B19
:100B600009F48AC0AAC08091090210C090912B029A
:100B700080912A02981770F5E0912B0281E08E0F88
:100B800080932B02F0E0E65FFD4F80818093BB00F5
:100B900085EC86C080932C028EC0E0912B0281E010
:100BA0008E0F80932B028091BB00F0E0E65FFD4F3B
:100BB000808390912B0280912A026EC0E0912B02DB
:100BC00081E08E0F80932B028091BB00F0E0E65F06
:100BD000FD4F808380912D0281116DC081E0809353
:100BE000080284EA61C083E080932E021092DB0148
:100BF000CFCF8091DB01803208F051C0E091DB0162
:100C000081E08E0F8093DB018091BB00F0E0E55422
:100C1000FE4F8083BDCF85EC8093BC0010922E02E6
:100C20008091DB01803230F4E091DB01F0E0E554AB
:100C3000FE4F10826091DB0170E0E091B901F0910C
:100C4000BA018BEB91E009951092DB0136C084E08C
:100C500080932E021092B8011092B701E091B50175
:100C6000F091B60109958091B701811105C081E02D
:100C70008093B70110929501E091B80181E08E0F49
:100C80008093B801F0E0EB56FE4F80818093BB006B
:100C90009091B8018091B701981708F479CF85E851
:100CA0008093BC000AC085EC8093BC0010922E0299
:100CB00004C010922C020E94C102FF91EF91BF91DB
:100CC000AF919F918F917F916F915F914F913F91E4
:100CD0002F910F900FBE0F901F9018951F920F929B
:100CE0000FB60F9211242F933F934F935F936F93FF
:100CF0007F938F939F93AF93BF93EF93FF9382E084
:100D00000E940504FF91EF91BF91AF919F918F9148
:100D10007F916F915F914F913F912F910F900FBEF7
:100D20000F901F9018951F920F920FB60F921124DB
:100D30002F933F934F935F936F937F938F939F93E3
:100D4000AF93BF93EF93FF9381E00E940504FF915F
:100D5000EF91BF91AF919F918F917F916F915F9133
:100D60004F913F912F910F900FBE0F901F901895AC
:100D70001F920F920FB60F9211242F933F934F9310
:100D80005F936F937F938F939F93AF93BF93EF93F3
:100D9000FF9380E00E940504FF91EF91BF91AF9116
:100DA0009F918F917F916F915F914F913F912F9183
:100DB0000F900FBE0F901F901895E3E5F2E013829D
:100DC000128288EE93E0A0E0B0E084839583A6834E
:100DD000B78322E131E03183208325EC30E0358791
:100DE000248724EC30E03787268720EC30E0318BF5
:100DF000208B21EC30E0338B228B22EC30E0358BE2
:100E0000248B26EC30E0378B268B118E128E138EBE
:100E1000148EE0EFF2E01382128284839583A6831E
:100E2000B78384E291E091838083EBE1F3E0138266
:100E3000128286E391E09183808381E2848380E162
:100E4000818782E082871386ECEFF2E010821182C4
:100E500012821382148215821682178210861186DE
:100E600012861386148615861686108A1786128AAD
:100E7000118A148A138A168A158A108E178A128E7E
:100E8000118E148E138E168E158E0895CF93DF93C8
:100E9000CDB7DEB728970FB6F894DEBF0FBECDBF33
:100EA000789484B5826084BD84B5816084BD85B545
:100EB000826085BD85B5816085BD80916E00816051
:100EC00080936E00109281008091810082608093F7
:100ED00081008091810081608093810080918000F9
:100EE0008160809380008091B10084608093B10024
:100EF0008091B00081608093B00080917A0084601E
:100F000080937A0080917A00826080937A00809149
:100F10007A00816080937A0080917A008068809363
:100F20007A001092C100E0916302F091640282E0C5
:100F30008083E0915F02F09160021082E091610293
:100F4000F09162028FEC808310926B02E091670255
:100F5000F091680286E08083E0916502F09166027C
:100F6000808180618083E0916502F09166028081DA
:100F700088608083E0916502F091660280818068DC
:100F80008083E0916502F091660280818F7D80838D
:100F900081E491E00E948B0480E28093FF02109232
:100FA000E7011092E60110923002109252020E9464
:100FB000F3020E941D048091FE028F7E8093FE0248
:100FC0008091FC028F7E8093FC020E9494038091AA
:100FD000FE028D7F8093FE028091FC028D7F8093C4
:100FE000FC020E9494031092E7011092E601109215
:100FF0003002109252020E94F3021092200380915C
:101000002503823018F098E0909320038093230307
:1010100062E370E080E090E00E9487026091260326
:101020008BE193E00E94AD0368EE73E080E090E016
:101030000E94870260E38BE193E00E94C1030BE40E
:1010400016E4C8010197F1F760E38BE193E00E9499
:10105000C103C8010197F1F760E38BE193E00E94BF
:10106000C10383E592E00197F1F760E28BE193E041
:101070000E94C10360912003606240E08BE193E035
:101080000E94DA0384E08093210340E06CE08BE16E
:1010900093E00E94DA0340E061E08BE193E00E947C
:1010A000DA030BE31FE1C8010197F1F782E08093B7
:1010B000220340E066E08BE193E00E94DA0340E027
:1010C00062E08BE193E00E94DA03C8010197F1F737
:1010D00088E08093260360E08BE193E00E94AD03FB
:1010E00067E471E08BE193E00E94760483E00E9464
:1010F0008C0084E00E948C0082E00E948C0088E0DA
:10110000E82E9BE3C92E9FE1D92E0E941D04F0908A
:10111000FD02F4FAFF24F0F80E941D040091FD0284
:10112000069501700E941D041091FD0212FB11270B
:1011300010F9E0E0F1E0DE0111968E2D01900D92A4
:101140008A95E1F780912303811102C08FEF01C0DE
:1011500081E0FE013196E80FF11DE80FF11D60817D
:10116000606840E08BE193E00E94DA0381E0F812CE
:1011700007C06DE471E08BE193E00E9476040AC041
:1011800061E571E08BE193E00E94760485E591E0F2
:101190000E948B04013069F440E061E08BE193E050
:1011A0000E94DA03C6010197F1F789E591E00E94F8
:1011B0008B04113009F03CC06DE471E08BE193E0E9
:1011C0000E9476048DE591E00E948B048091E501F8
:1011D00082608093E50160E083E00E941602A090A7
:1011E000E50107E010E0B12CB501002E02C07595B5
:1011F00067950A94E2F76170772782E00E941602F1
:1012000061E084E00E94160260E084E00E94160221
:101210000150110948F761E083E00E94160264E67C
:1012200070E080E090E00E9487020E940C026DCF87
:101230008091E5018D7FCDCFEE0FFF1F0590F491DA
:10124000E02D099481E090E0F8940C942709F8943B
:02125000FFCFCE
:1012520000004000140054006B006C006D000000A0
:101262000000A30110013B01EA016C014A015E0189
:101272000000000065033503020411030801210385
:10128200120300000000FB031001020401040D0A16
:1012920000537461727400505553483F00594553CE
:1012A200004E4F2000342D3000312D3100322D31CF
:0212B20000003A
:107E0000112484B714BE81FFF0D085E080938100F7
:107E100082E08093C00088E18093C10086E0809377
:107E2000C20080E18093C4008EE0C9D0259A86E02C
:107E300020E33CEF91E0309385002093840096BBD3
:107E4000B09BFECF1D9AA8958150A9F7CC24DD24C4
:107E500088248394B5E0AB2EA1E19A2EF3E0BF2EE7
:107E6000A2D0813461F49FD0082FAFD0023811F036
:107E7000013811F484E001C083E08DD089C08234E0
:107E800011F484E103C0853419F485E0A6D080C0E4
:107E9000853579F488D0E82EFF2485D0082F10E0AE
:107EA000102F00270E291F29000F111F8ED06801E7
:107EB0006FC0863521F484E090D080E0DECF843638
:107EC00009F040C070D06FD0082F6DD080E0C81688
:107ED00080E7D80618F4F601B7BEE895C0E0D1E017
:107EE00062D089930C17E1F7F0E0CF16F0E7DF06D8
:107EF00018F0F601B7BEE89568D007B600FCFDCFD4
:107F0000A601A0E0B1E02C9130E011968C91119780
:107F100090E0982F8827822B932B1296FA010C0160
:107F200087BEE89511244E5F5F4FF1E0A038BF0790
:107F300051F7F601A7BEE89507B600FCFDCF97BE46
:107F4000E89526C08437B1F42ED02DD0F82E2BD052
:107F50003CD0F601EF2C8F010F5F1F4F84911BD097
:107F6000EA94F801C1F70894C11CD11CFA94CF0C13
:107F7000D11C0EC0853739F428D08EE10CD085E9AC
:107F80000AD08FE07ACF813511F488E018D01DD067
:107F900080E101D065CF982F8091C00085FFFCCF94
:107FA0009093C60008958091C00087FFFCCF809118
:107FB000C00084FD01C0A8958091C6000895E0E648
:107FC000F0E098E1908380830895EDDF803219F02E
:107FD00088E0F5DFFFCF84E1DECF1F93182FE3DFCA
:107FE0001150E9F7F2DF1F91089580E0E8DFEE27F6
:047FF000FF270994CA
:027FFE00040479
:0400000300007E007B
:00000001FF
